{
  "contractName": "AdvertisementSurfaceAuction",
  "abi": [
    {
      "inputs": [
        {
          "internalType": "address",
          "name": "_advertisementSurface",
          "type": "address"
        }
      ],
      "stateMutability": "nonpayable",
      "type": "constructor"
    },
    {
      "anonymous": false,
      "inputs": [
        {
          "indexed": true,
          "internalType": "uint256",
          "name": "tokenId",
          "type": "uint256"
        },
        {
          "indexed": true,
          "internalType": "address",
          "name": "bidder",
          "type": "address"
        },
        {
          "indexed": true,
          "internalType": "uint256",
          "name": "bidId",
          "type": "uint256"
        }
      ],
      "name": "LogActive",
      "type": "event"
    },
    {
      "anonymous": false,
      "inputs": [
        {
          "indexed": true,
          "internalType": "uint256",
          "name": "tokenId",
          "type": "uint256"
        },
        {
          "indexed": true,
          "internalType": "address",
          "name": "receiver",
          "type": "address"
        },
        {
          "indexed": true,
          "internalType": "uint256",
          "name": "bidId",
          "type": "uint256"
        }
      ],
      "name": "LogFinished",
      "type": "event"
    },
    {
      "anonymous": false,
      "inputs": [
        {
          "indexed": true,
          "internalType": "uint256",
          "name": "tokenId",
          "type": "uint256"
        },
        {
          "indexed": true,
          "internalType": "address",
          "name": "bidder",
          "type": "address"
        },
        {
          "indexed": true,
          "internalType": "uint256",
          "name": "bidId",
          "type": "uint256"
        }
      ],
      "name": "LogOutbid",
      "type": "event"
    },
    {
      "inputs": [],
      "name": "getBidCount",
      "outputs": [
        {
          "internalType": "uint256",
          "name": "",
          "type": "uint256"
        }
      ],
      "stateMutability": "view",
      "type": "function",
      "constant": true
    },
    {
      "inputs": [
        {
          "internalType": "uint256",
          "name": "_bidId",
          "type": "uint256"
        }
      ],
      "name": "getBid",
      "outputs": [
        {
          "components": [
            {
              "internalType": "address",
              "name": "bidder",
              "type": "address"
            },
            {
              "internalType": "uint256",
              "name": "surTokenId",
              "type": "uint256"
            },
            {
              "internalType": "address",
              "name": "advERC721",
              "type": "address"
            },
            {
              "internalType": "uint256",
              "name": "advTokenId",
              "type": "uint256"
            },
            {
              "internalType": "uint256",
              "name": "bid",
              "type": "uint256"
            },
            {
              "internalType": "uint64",
              "name": "startTime",
              "type": "uint64"
            },
            {
              "internalType": "uint64",
              "name": "duration",
              "type": "uint64"
            },
            {
              "internalType": "enum IAdvertisementSurfaceAuction.BidState",
              "name": "state",
              "type": "uint8"
            }
          ],
          "internalType": "struct IAdvertisementSurfaceAuction.Bid",
          "name": "",
          "type": "tuple"
        }
      ],
      "stateMutability": "view",
      "type": "function",
      "constant": true
    },
    {
      "inputs": [],
      "name": "getMyBidsCount",
      "outputs": [
        {
          "internalType": "uint256",
          "name": "",
          "type": "uint256"
        }
      ],
      "stateMutability": "view",
      "type": "function",
      "constant": true
    },
    {
      "inputs": [
        {
          "internalType": "uint256",
          "name": "_index",
          "type": "uint256"
        }
      ],
      "name": "getMyBid",
      "outputs": [
        {
          "internalType": "uint256",
          "name": "",
          "type": "uint256"
        },
        {
          "components": [
            {
              "internalType": "address",
              "name": "bidder",
              "type": "address"
            },
            {
              "internalType": "uint256",
              "name": "surTokenId",
              "type": "uint256"
            },
            {
              "internalType": "address",
              "name": "advERC721",
              "type": "address"
            },
            {
              "internalType": "uint256",
              "name": "advTokenId",
              "type": "uint256"
            },
            {
              "internalType": "uint256",
              "name": "bid",
              "type": "uint256"
            },
            {
              "internalType": "uint64",
              "name": "startTime",
              "type": "uint64"
            },
            {
              "internalType": "uint64",
              "name": "duration",
              "type": "uint64"
            },
            {
              "internalType": "enum IAdvertisementSurfaceAuction.BidState",
              "name": "state",
              "type": "uint8"
            }
          ],
          "internalType": "struct IAdvertisementSurfaceAuction.Bid",
          "name": "",
          "type": "tuple"
        }
      ],
      "stateMutability": "view",
      "type": "function",
      "constant": true
    },
    {
      "inputs": [
        {
          "internalType": "uint256",
          "name": "_tokenId",
          "type": "uint256"
        }
      ],
      "name": "getSurfaceBidCount",
      "outputs": [
        {
          "internalType": "uint256",
          "name": "",
          "type": "uint256"
        }
      ],
      "stateMutability": "view",
      "type": "function",
      "constant": true
    },
    {
      "inputs": [
        {
          "internalType": "uint256",
          "name": "_tokenId",
          "type": "uint256"
        },
        {
          "internalType": "uint256",
          "name": "_index",
          "type": "uint256"
        }
      ],
      "name": "getSurfaceBid",
      "outputs": [
        {
          "internalType": "uint256",
          "name": "",
          "type": "uint256"
        },
        {
          "components": [
            {
              "internalType": "address",
              "name": "bidder",
              "type": "address"
            },
            {
              "internalType": "uint256",
              "name": "surTokenId",
              "type": "uint256"
            },
            {
              "internalType": "address",
              "name": "advERC721",
              "type": "address"
            },
            {
              "internalType": "uint256",
              "name": "advTokenId",
              "type": "uint256"
            },
            {
              "internalType": "uint256",
              "name": "bid",
              "type": "uint256"
            },
            {
              "internalType": "uint64",
              "name": "startTime",
              "type": "uint64"
            },
            {
              "internalType": "uint64",
              "name": "duration",
              "type": "uint64"
            },
            {
              "internalType": "enum IAdvertisementSurfaceAuction.BidState",
              "name": "state",
              "type": "uint8"
            }
          ],
          "internalType": "struct IAdvertisementSurfaceAuction.Bid",
          "name": "",
          "type": "tuple"
        }
      ],
      "stateMutability": "view",
      "type": "function",
      "constant": true
    },
    {
      "inputs": [
        {
          "internalType": "uint256",
          "name": "_tokenId",
          "type": "uint256"
        }
      ],
      "name": "getActiveBidCount",
      "outputs": [
        {
          "internalType": "uint256",
          "name": "",
          "type": "uint256"
        }
      ],
      "stateMutability": "view",
      "type": "function",
      "constant": true
    },
    {
      "inputs": [
        {
          "internalType": "uint256",
          "name": "_tokenId",
          "type": "uint256"
        },
        {
          "internalType": "uint256",
          "name": "_index",
          "type": "uint256"
        }
      ],
      "name": "getActiveBid",
      "outputs": [
        {
          "internalType": "uint256",
          "name": "",
          "type": "uint256"
        },
        {
          "components": [
            {
              "internalType": "address",
              "name": "bidder",
              "type": "address"
            },
            {
              "internalType": "uint256",
              "name": "surTokenId",
              "type": "uint256"
            },
            {
              "internalType": "address",
              "name": "advERC721",
              "type": "address"
            },
            {
              "internalType": "uint256",
              "name": "advTokenId",
              "type": "uint256"
            },
            {
              "internalType": "uint256",
              "name": "bid",
              "type": "uint256"
            },
            {
              "internalType": "uint64",
              "name": "startTime",
              "type": "uint64"
            },
            {
              "internalType": "uint64",
              "name": "duration",
              "type": "uint64"
            },
            {
              "internalType": "enum IAdvertisementSurfaceAuction.BidState",
              "name": "state",
              "type": "uint8"
            }
          ],
          "internalType": "struct IAdvertisementSurfaceAuction.Bid",
          "name": "",
          "type": "tuple"
        }
      ],
      "stateMutability": "view",
      "type": "function",
      "constant": true
    },
    {
      "inputs": [
        {
          "components": [
            {
              "internalType": "address",
              "name": "bidder",
              "type": "address"
            },
            {
              "internalType": "uint256",
              "name": "surTokenId",
              "type": "uint256"
            },
            {
              "internalType": "address",
              "name": "advERC721",
              "type": "address"
            },
            {
              "internalType": "uint256",
              "name": "advTokenId",
              "type": "uint256"
            },
            {
              "internalType": "uint256",
              "name": "bid",
              "type": "uint256"
            },
            {
              "internalType": "uint64",
              "name": "startTime",
              "type": "uint64"
            },
            {
              "internalType": "uint64",
              "name": "duration",
              "type": "uint64"
            },
            {
              "internalType": "enum IAdvertisementSurfaceAuction.BidState",
              "name": "state",
              "type": "uint8"
            }
          ],
          "internalType": "struct IAdvertisementSurfaceAuction.Bid",
          "name": "_bid",
          "type": "tuple"
        }
      ],
      "name": "newBid",
      "outputs": [],
      "stateMutability": "nonpayable",
      "type": "function"
    },
    {
      "inputs": [
        {
          "internalType": "uint256",
          "name": "_bidId",
          "type": "uint256"
        }
      ],
      "name": "refundBid",
      "outputs": [],
      "stateMutability": "nonpayable",
      "type": "function"
    },
    {
      "inputs": [
        {
          "internalType": "uint256",
          "name": "_bidId",
          "type": "uint256"
        }
      ],
      "name": "collectBid",
      "outputs": [],
      "stateMutability": "nonpayable",
      "type": "function"
    },
    {
      "inputs": [
        {
          "components": [
            {
              "internalType": "address",
              "name": "bidder",
              "type": "address"
            },
            {
              "internalType": "uint256",
              "name": "surTokenId",
              "type": "uint256"
            },
            {
              "internalType": "address",
              "name": "advERC721",
              "type": "address"
            },
            {
              "internalType": "uint256",
              "name": "advTokenId",
              "type": "uint256"
            },
            {
              "internalType": "uint256",
              "name": "bid",
              "type": "uint256"
            },
            {
              "internalType": "uint64",
              "name": "startTime",
              "type": "uint64"
            },
            {
              "internalType": "uint64",
              "name": "duration",
              "type": "uint64"
            },
            {
              "internalType": "enum IAdvertisementSurfaceAuction.BidState",
              "name": "state",
              "type": "uint8"
            }
          ],
          "internalType": "struct IAdvertisementSurfaceAuction.Bid",
          "name": "_bid",
          "type": "tuple"
        }
      ],
      "name": "getBidWorth",
      "outputs": [
        {
          "internalType": "uint256",
          "name": "",
          "type": "uint256"
        }
      ],
      "stateMutability": "pure",
      "type": "function",
      "constant": true
    }
  ],
  "bytecode": "0x60806040523480156200001157600080fd5b506040516200404538038062004045833981810160405281019062000037919062000095565b806000806101000a81548173ffffffffffffffffffffffffffffffffffffffff021916908373ffffffffffffffffffffffffffffffffffffffff160217905550506200010f565b6000815190506200008f81620000f5565b92915050565b600060208284031215620000a857600080fd5b6000620000b8848285016200007e565b91505092915050565b6000620000ce82620000d5565b9050919050565b600073ffffffffffffffffffffffffffffffffffffffff82169050919050565b6200010081620000c1565b81146200010c57600080fd5b50565b613f26806200011f6000396000f3fe608060405234801561001057600080fd5b50600436106100b45760003560e01c80638df6d6e6116100715780638df6d6e61461019f578063a1b4c4e7146101d0578063bc3aa281146101ee578063e18b26bd1461021f578063e2c64c871461024f578063f28ef03714610280576100b4565b80630534370d146100b957806326d29ce0146100e957806328f6a48a146101055780632d13da02146101235780633c889e6f1461015357806386e7b7cd14610183575b600080fd5b6100d360048036038101906100ce9190613157565b61029c565b6040516100e09190613b70565b60405180910390f35b61010360048036038101906100fe91906131aa565b6102ae565b005b61010d6107e5565b60405161011a9190613b70565b60405180910390f35b61013d600480360381019061013891906131aa565b6107ef565b60405161014a9190613b70565b60405180910390f35b61016d600480360381019061016891906131aa565b610845565b60405161017a9190613b54565b60405180910390f35b61019d600480360381019061019891906131aa565b610a5d565b005b6101b960048036038101906101b491906131aa565b61121e565b6040516101c7929190613b8b565b60405180910390f35b6101d86114c5565b6040516101e59190613b70565b60405180910390f35b610208600480360381019061020391906131fc565b61150f565b604051610216929190613b8b565b60405180910390f35b610239600480360381019061023491906131aa565b61178c565b6040516102469190613b70565b60405180910390f35b610269600480360381019061026491906131fc565b6117e2565b604051610277929190613b8b565b60405180910390f35b61029a60048036038101906102959190613157565b611a5f565b005b60006102a7826123de565b9050919050565b80600181815481106102e9577f4e487b7100000000000000000000000000000000000000000000000000000000600052603260045260246000fd5b906000526020600020906006020160000160009054906101000a900473ffffffffffffffffffffffffffffffffffffffff1673ffffffffffffffffffffffffffffffffffffffff163373ffffffffffffffffffffffffffffffffffffffff1614610388576040517f08c379a000000000000000000000000000000000000000000000000000000000815260040161037f90613b34565b60405180910390fd5b81600060028111156103c3577f4e487b7100000000000000000000000000000000000000000000000000000000600052602160045260246000fd5b600182815481106103fd577f4e487b7100000000000000000000000000000000000000000000000000000000600052603260045260246000fd5b906000526020600020906006020160050160109054906101000a900460ff166002811115610454577f4e487b7100000000000000000000000000000000000000000000000000000000600052602160045260246000fd5b14610494576040517f08c379a000000000000000000000000000000000000000000000000000000000815260040161048b906139d4565b60405180910390fd5b6000600184815481106104d0577f4e487b7100000000000000000000000000000000000000000000000000000000600052603260045260246000fd5b9060005260206000209060060201905060028160050160106101000a81548160ff0219169083600281111561052e577f4e487b7100000000000000000000000000000000000000000000000000000000600052602160045260246000fd5b021790555060006105428260010154612405565b905060008160000151905060008173ffffffffffffffffffffffffffffffffffffffff166370a08231306040518263ffffffff1660e01b815260040161058891906138b0565b60206040518083038186803b1580156105a057600080fd5b505afa1580156105b4573d6000803e3d6000fd5b505050506040513d601f19601f820116820180604052508101906105d891906131d3565b90508173ffffffffffffffffffffffffffffffffffffffff1663a9059cbb338660050160089054906101000a900467ffffffffffffffff1667ffffffffffffffff1687600401546106299190613c8b565b6040518363ffffffff1660e01b815260040161064692919061392b565b602060405180830381600087803b15801561066057600080fd5b505af1158015610674573d6000803e3d6000fd5b505050506040513d601f19601f82011682018060405250810190610698919061312e565b508360050160089054906101000a900467ffffffffffffffff1667ffffffffffffffff1684600401546106cb9190613c8b565b8273ffffffffffffffffffffffffffffffffffffffff166370a08231306040518263ffffffff1660e01b815260040161070491906138b0565b60206040518083038186803b15801561071c57600080fd5b505afa158015610730573d6000803e3d6000fd5b505050506040513d601f19601f8201168201806040525081019061075491906131d3565b8261075f9190613ce5565b14610793577f4e487b7100000000000000000000000000000000000000000000000000000000600052600160045260246000fd5b863373ffffffffffffffffffffffffffffffffffffffff1685600101547f6942ab004203a9d81d8fe7f309e5c46672555c85b63b27a290b48d1771d9658260405160405180910390a450505050505050565b6000600254905090565b60008015156003600084815260200190815260200160002060009054906101000a900460ff16151514156108265760009050610840565b600560008381526020019081526020016000208054905090505b919050565b61084d612e73565b60018281548110610887577f4e487b7100000000000000000000000000000000000000000000000000000000600052603260045260246000fd5b9060005260206000209060060201604051806101000160405290816000820160009054906101000a900473ffffffffffffffffffffffffffffffffffffffff1673ffffffffffffffffffffffffffffffffffffffff1673ffffffffffffffffffffffffffffffffffffffff168152602001600182015481526020016002820160009054906101000a900473ffffffffffffffffffffffffffffffffffffffff1673ffffffffffffffffffffffffffffffffffffffff1673ffffffffffffffffffffffffffffffffffffffff16815260200160038201548152602001600482015481526020016005820160009054906101000a900467ffffffffffffffff1667ffffffffffffffff1667ffffffffffffffff1681526020016005820160089054906101000a900467ffffffffffffffff1667ffffffffffffffff1667ffffffffffffffff1681526020016005820160109054906101000a900460ff166002811115610a1a577f4e487b7100000000000000000000000000000000000000000000000000000000600052602160045260246000fd5b6002811115610a52577f4e487b7100000000000000000000000000000000000000000000000000000000600052602160045260246000fd5b815250509050919050565b8060008054906101000a900473ffffffffffffffffffffffffffffffffffffffff1673ffffffffffffffffffffffffffffffffffffffff16636352211e60018381548110610ad4577f4e487b7100000000000000000000000000000000000000000000000000000000600052603260045260246000fd5b9060005260206000209060060201600101546040518263ffffffff1660e01b8152600401610b029190613b70565b60206040518083038186803b158015610b1a57600080fd5b505afa158015610b2e573d6000803e3d6000fd5b505050506040513d601f19601f82011682018060405250810190610b529190613105565b73ffffffffffffffffffffffffffffffffffffffff163373ffffffffffffffffffffffffffffffffffffffff1614610bbf576040517f08c379a0000000000000000000000000000000000000000000000000000000008152600401610bb690613a54565b60405180910390fd5b8160016002811115610bfa577f4e487b7100000000000000000000000000000000000000000000000000000000600052602160045260246000fd5b60018281548110610c34577f4e487b7100000000000000000000000000000000000000000000000000000000600052603260045260246000fd5b906000526020600020906006020160050160109054906101000a900460ff166002811115610c8b577f4e487b7100000000000000000000000000000000000000000000000000000000600052602160045260246000fd5b148015610d6a57504260018281548110610cce577f4e487b7100000000000000000000000000000000000000000000000000000000600052603260045260246000fd5b906000526020600020906006020160050160089054906101000a900467ffffffffffffffff1660018381548110610d2e577f4e487b7100000000000000000000000000000000000000000000000000000000600052603260045260246000fd5b906000526020600020906006020160050160009054906101000a900467ffffffffffffffff16610d5e9190613c4d565b67ffffffffffffffff16105b610da9576040517f08c379a0000000000000000000000000000000000000000000000000000000008152600401610da090613a74565b60405180910390fd5b600060018481548110610de5577f4e487b7100000000000000000000000000000000000000000000000000000000600052603260045260246000fd5b9060005260206000209060060201905060016002811115610e2f577f4e487b7100000000000000000000000000000000000000000000000000000000600052602160045260246000fd5b8160050160109054906101000a900460ff166002811115610e79577f4e487b7100000000000000000000000000000000000000000000000000000000600052602160045260246000fd5b1415610f195760006005600083600101548152602001908152602001600020905060005b8180549050811015610f165785828281548110610ee3577f4e487b7100000000000000000000000000000000000000000000000000000000600052603260045260246000fd5b90600052602060002001541415610f0357610efe82826124bc565b610f16565b8080610f0e90613d9a565b915050610e9d565b50505b60028160050160106101000a81548160ff02191690836002811115610f67577f4e487b7100000000000000000000000000000000000000000000000000000000600052602160045260246000fd5b02179055506000610f7b8260010154612405565b905060008160000151905060008173ffffffffffffffffffffffffffffffffffffffff166370a08231306040518263ffffffff1660e01b8152600401610fc191906138b0565b60206040518083038186803b158015610fd957600080fd5b505afa158015610fed573d6000803e3d6000fd5b505050506040513d601f19601f8201168201806040525081019061101191906131d3565b90508173ffffffffffffffffffffffffffffffffffffffff1663a9059cbb338660050160089054906101000a900467ffffffffffffffff1667ffffffffffffffff1687600401546110629190613c8b565b6040518363ffffffff1660e01b815260040161107f92919061392b565b602060405180830381600087803b15801561109957600080fd5b505af11580156110ad573d6000803e3d6000fd5b505050506040513d601f19601f820116820180604052508101906110d1919061312e565b508360050160089054906101000a900467ffffffffffffffff1667ffffffffffffffff1684600401546111049190613c8b565b8273ffffffffffffffffffffffffffffffffffffffff166370a08231306040518263ffffffff1660e01b815260040161113d91906138b0565b60206040518083038186803b15801561115557600080fd5b505afa158015611169573d6000803e3d6000fd5b505050506040513d601f19601f8201168201806040525081019061118d91906131d3565b826111989190613ce5565b146111cc577f4e487b7100000000000000000000000000000000000000000000000000000000600052600160045260246000fd5b863373ffffffffffffffffffffffffffffffffffffffff1685600101547f6942ab004203a9d81d8fe7f309e5c46672555c85b63b27a290b48d1771d9658260405160405180910390a450505050505050565b6000611228612e73565b6000600660003373ffffffffffffffffffffffffffffffffffffffff1673ffffffffffffffffffffffffffffffffffffffff16815260200190815260200160002084815481106112a1577f4e487b7100000000000000000000000000000000000000000000000000000000600052603260045260246000fd5b9060005260206000200154905080600182815481106112e9577f4e487b7100000000000000000000000000000000000000000000000000000000600052603260045260246000fd5b906000526020600020906006020180604051806101000160405290816000820160009054906101000a900473ffffffffffffffffffffffffffffffffffffffff1673ffffffffffffffffffffffffffffffffffffffff1673ffffffffffffffffffffffffffffffffffffffff168152602001600182015481526020016002820160009054906101000a900473ffffffffffffffffffffffffffffffffffffffff1673ffffffffffffffffffffffffffffffffffffffff1673ffffffffffffffffffffffffffffffffffffffff16815260200160038201548152602001600482015481526020016005820160009054906101000a900467ffffffffffffffff1667ffffffffffffffff1667ffffffffffffffff1681526020016005820160089054906101000a900467ffffffffffffffff1667ffffffffffffffff1667ffffffffffffffff1681526020016005820160109054906101000a900460ff16600281111561147d577f4e487b7100000000000000000000000000000000000000000000000000000000600052602160045260246000fd5b60028111156114b5577f4e487b7100000000000000000000000000000000000000000000000000000000600052602160045260246000fd5b8152505090509250925050915091565b6000600660003373ffffffffffffffffffffffffffffffffffffffff1673ffffffffffffffffffffffffffffffffffffffff16815260200190815260200160002080549050905090565b6000611519612e73565b6000600560008681526020019081526020016000208481548110611566577f4e487b7100000000000000000000000000000000000000000000000000000000600052603260045260246000fd5b9060005260206000200154905080600182815481106115ae577f4e487b7100000000000000000000000000000000000000000000000000000000600052603260045260246000fd5b906000526020600020906006020180604051806101000160405290816000820160009054906101000a900473ffffffffffffffffffffffffffffffffffffffff1673ffffffffffffffffffffffffffffffffffffffff1673ffffffffffffffffffffffffffffffffffffffff168152602001600182015481526020016002820160009054906101000a900473ffffffffffffffffffffffffffffffffffffffff1673ffffffffffffffffffffffffffffffffffffffff1673ffffffffffffffffffffffffffffffffffffffff16815260200160038201548152602001600482015481526020016005820160009054906101000a900467ffffffffffffffff1667ffffffffffffffff1667ffffffffffffffff1681526020016005820160089054906101000a900467ffffffffffffffff1667ffffffffffffffff1667ffffffffffffffff1681526020016005820160109054906101000a900460ff166002811115611742577f4e487b7100000000000000000000000000000000000000000000000000000000600052602160045260246000fd5b600281111561177a577f4e487b7100000000000000000000000000000000000000000000000000000000600052602160045260246000fd5b81525050905092509250509250929050565b60008015156003600084815260200190815260200160002060009054906101000a900460ff16151514156117c357600090506117dd565b600460008381526020019081526020016000208054905090505b919050565b60006117ec612e73565b6000600460008681526020019081526020016000208481548110611839577f4e487b7100000000000000000000000000000000000000000000000000000000600052603260045260246000fd5b906000526020600020015490508060018281548110611881577f4e487b7100000000000000000000000000000000000000000000000000000000600052603260045260246000fd5b906000526020600020906006020180604051806101000160405290816000820160009054906101000a900473ffffffffffffffffffffffffffffffffffffffff1673ffffffffffffffffffffffffffffffffffffffff1673ffffffffffffffffffffffffffffffffffffffff168152602001600182015481526020016002820160009054906101000a900473ffffffffffffffffffffffffffffffffffffffff1673ffffffffffffffffffffffffffffffffffffffff1673ffffffffffffffffffffffffffffffffffffffff16815260200160038201548152602001600482015481526020016005820160009054906101000a900467ffffffffffffffff1667ffffffffffffffff1667ffffffffffffffff1681526020016005820160089054906101000a900467ffffffffffffffff1667ffffffffffffffff1667ffffffffffffffff1681526020016005820160109054906101000a900460ff166002811115611a15577f4e487b7100000000000000000000000000000000000000000000000000000000600052602160045260246000fd5b6002811115611a4d577f4e487b7100000000000000000000000000000000000000000000000000000000600052602160045260246000fd5b81525050905092509250509250929050565b80611a6d81602001516125ee565b611aac576040517f08c379a0000000000000000000000000000000000000000000000000000000008152600401611aa390613af4565b60405180910390fd5b3373ffffffffffffffffffffffffffffffffffffffff16816000015173ffffffffffffffffffffffffffffffffffffffff1614611b1e576040517f08c379a0000000000000000000000000000000000000000000000000000000008152600401611b1590613a14565b60405180910390fd5b600073ffffffffffffffffffffffffffffffffffffffff16816040015173ffffffffffffffffffffffffffffffffffffffff161415611b92576040517f08c379a0000000000000000000000000000000000000000000000000000000008152600401611b8990613ad4565b60405180910390fd5b600081606001511415611bda576040517f08c379a0000000000000000000000000000000000000000000000000000000008152600401611bd190613a34565b60405180910390fd5b611be78160200151612405565b6020015181608001511015611c31576040517f08c379a0000000000000000000000000000000000000000000000000000000008152600401611c2890613994565b60405180910390fd5b428160a0015167ffffffffffffffff1611611c81576040517f08c379a0000000000000000000000000000000000000000000000000000000008152600401611c78906139b4565b60405180910390fd5b60008160c0015167ffffffffffffffff1611611cd2576040517f08c379a0000000000000000000000000000000000000000000000000000000008152600401611cc9906139f4565b60405180910390fd5b60016002811115611d0c577f4e487b7100000000000000000000000000000000000000000000000000000000600052602160045260246000fd5b8160e001516002811115611d49577f4e487b7100000000000000000000000000000000000000000000000000000000600052602160045260246000fd5b14611d89576040517f08c379a0000000000000000000000000000000000000000000000000000000008152600401611d8090613974565b60405180910390fd5b81602001518260c0015167ffffffffffffffff168360800151611dac9190613c8b565b60008060009054906101000a900473ffffffffffffffffffffffffffffffffffffffff1673ffffffffffffffffffffffffffffffffffffffff1663d810ff0f846040518263ffffffff1660e01b8152600401611e089190613b70565b604080518083038186803b158015611e1f57600080fd5b505afa158015611e33573d6000803e3d6000fd5b505050506040513d601f19601f82011682018060405250810190611e579190613181565b600001519050818173ffffffffffffffffffffffffffffffffffffffff1663dd62ed3e33306040518363ffffffff1660e01b8152600401611e999291906138cb565b60206040518083038186803b158015611eb157600080fd5b505afa158015611ec5573d6000803e3d6000fd5b505050506040513d601f19601f82011682018060405250810190611ee991906131d3565b1015611f2a576040517f08c379a0000000000000000000000000000000000000000000000000000000008152600401611f2190613a94565b60405180910390fd5b818173ffffffffffffffffffffffffffffffffffffffff166370a08231336040518263ffffffff1660e01b8152600401611f6491906138b0565b60206040518083038186803b158015611f7c57600080fd5b505afa158015611f90573d6000803e3d6000fd5b505050506040513d601f19601f82011682018060405250810190611fb491906131d3565b1015611ff5576040517f08c379a0000000000000000000000000000000000000000000000000000000008152600401611fec90613ab4565b60405180910390fd5b611ffe856126a1565b600185908060018154018082558091505060019003906000526020600020906006020160009091909190915060008201518160000160006101000a81548173ffffffffffffffffffffffffffffffffffffffff021916908373ffffffffffffffffffffffffffffffffffffffff1602179055506020820151816001015560408201518160020160006101000a81548173ffffffffffffffffffffffffffffffffffffffff021916908373ffffffffffffffffffffffffffffffffffffffff160217905550606082015181600301556080820151816004015560a08201518160050160006101000a81548167ffffffffffffffff021916908367ffffffffffffffff16021790555060c08201518160050160086101000a81548167ffffffffffffffff021916908367ffffffffffffffff16021790555060e08201518160050160106101000a81548160ff02191690836002811115612185577f4e487b7100000000000000000000000000000000000000000000000000000000600052602160045260246000fd5b02179055505050600160025461219b9190613bf7565b600281905550600060016002546121b29190613ce5565b905060046000876020015181526020019081526020016000208190806001815401808255809150506001900390600052602060002001600090919091909150556005600087602001518152602001908152602001600020819080600181540180825580915050600190039060005260206000200160009091909190915055600660003373ffffffffffffffffffffffffffffffffffffffff1673ffffffffffffffffffffffffffffffffffffffff1681526020019081526020016000208190806001815401808255809150506001900390600052602060002001600090919091909150556001600360008860200151815260200190815260200160002060006101000a81548160ff02191690831515021790555060006122d58760200151612405565b9050806000015173ffffffffffffffffffffffffffffffffffffffff166323b872dd33308a60c0015167ffffffffffffffff168b608001516123179190613c8b565b6040518463ffffffff1660e01b8152600401612335939291906138f4565b602060405180830381600087803b15801561234f57600080fd5b505af1158015612363573d6000803e3d6000fd5b505050506040513d601f19601f82011682018060405250810190612387919061312e565b5081876000015173ffffffffffffffffffffffffffffffffffffffff1688602001517ff8936fa68fdfddfbd5d9b0e9ee062daae37d14c4559ba7b983f49f21a771038a60405160405180910390a450505050505050565b600081608001518260c0015167ffffffffffffffff166123fe9190613c8b565b9050919050565b61240d612f30565b60008054906101000a900473ffffffffffffffffffffffffffffffffffffffff1673ffffffffffffffffffffffffffffffffffffffff1663d810ff0f836040518263ffffffff1660e01b81526004016124669190613b70565b604080518083038186803b15801561247d57600080fd5b505afa158015612491573d6000803e3d6000fd5b505050506040513d601f19601f820116820180604052508101906124b59190613181565b9050919050565b81805490508110612502576040517f08c379a00000000000000000000000000000000000000000000000000000000081526004016124f990613b14565b60405180910390fd5b81600183805490506125149190613ce5565b8154811061254b577f4e487b7100000000000000000000000000000000000000000000000000000000600052603260045260246000fd5b906000526020600020015482828154811061258f577f4e487b7100000000000000000000000000000000000000000000000000000000600052603260045260246000fd5b9060005260206000200181905550818054806125d4577f4e487b7100000000000000000000000000000000000000000000000000000000600052603160045260246000fd5b600190038181906000526020600020016000905590555050565b60008060009054906101000a900473ffffffffffffffffffffffffffffffffffffffff1673ffffffffffffffffffffffffffffffffffffffff16635f5b6ad4836040518263ffffffff1660e01b815260040161264a9190613b70565b60206040518083038186803b15801561266257600080fd5b505afa158015612676573d6000803e3d6000fd5b505050506040513d601f19601f8201168201806040525081019061269a919061312e565b9050919050565b6000600560008360200151815260200190815260200160002090506000808091505b8280549050821015612a2a57600083838154811061270a577f4e487b7100000000000000000000000000000000000000000000000000000000600052603260045260246000fd5b90600052602060002001549050600060018281548110612753577f4e487b7100000000000000000000000000000000000000000000000000000000600052603260045260246000fd5b9060005260206000209060060201604051806101000160405290816000820160009054906101000a900473ffffffffffffffffffffffffffffffffffffffff1673ffffffffffffffffffffffffffffffffffffffff1673ffffffffffffffffffffffffffffffffffffffff168152602001600182015481526020016002820160009054906101000a900473ffffffffffffffffffffffffffffffffffffffff1673ffffffffffffffffffffffffffffffffffffffff1673ffffffffffffffffffffffffffffffffffffffff16815260200160038201548152602001600482015481526020016005820160009054906101000a900467ffffffffffffffff1667ffffffffffffffff1667ffffffffffffffff1681526020016005820160089054906101000a900467ffffffffffffffff1667ffffffffffffffff1667ffffffffffffffff1681526020016005820160109054906101000a900460ff1660028111156128e6577f4e487b7100000000000000000000000000000000000000000000000000000000600052602160045260246000fd5b600281111561291e577f4e487b7100000000000000000000000000000000000000000000000000000000600052602160045260246000fd5b8152505090508060a0015167ffffffffffffffff168660a0015167ffffffffffffffff161115801561297a57508060a0015167ffffffffffffffff168660c001518760a0015161296e9190613c4d565b67ffffffffffffffff16115b1561299c57612988816123de565b836129939190613bf7565b92505050612a17565b8060a0015167ffffffffffffffff168660a0015167ffffffffffffffff16101580156129f257508060c001518160a001516129d79190613c4d565b67ffffffffffffffff168660a0015167ffffffffffffffff16105b15612a1457612a00816123de565b83612a0b9190613bf7565b92505050612a17565b50505b8180612a2290613d9a565b9250506126c3565b600081612a36866123de565b11905080612a79576040517f08c379a0000000000000000000000000000000000000000000000000000000008152600401612a7090613954565b60405180910390fd5b60018560e001906002811115612ab8577f4e487b7100000000000000000000000000000000000000000000000000000000600052602160045260246000fd5b90816002811115612af2577f4e487b7100000000000000000000000000000000000000000000000000000000600052602160045260246000fd5b81525050600092505b8380549050831015612e6c576000848481548110612b42577f4e487b7100000000000000000000000000000000000000000000000000000000600052603260045260246000fd5b90600052602060002001549050600060018281548110612b8b577f4e487b7100000000000000000000000000000000000000000000000000000000600052603260045260246000fd5b906000526020600020906006020190508060050160009054906101000a900467ffffffffffffffff1667ffffffffffffffff168760a0015167ffffffffffffffff1611158015612c1957508060050160009054906101000a900467ffffffffffffffff1667ffffffffffffffff168760c001518860a00151612c0d9190613c4d565b67ffffffffffffffff16115b15612cef5760008160050160106101000a81548160ff02191690836002811115612c6c577f4e487b7100000000000000000000000000000000000000000000000000000000600052602160045260246000fd5b0217905550612c7b86866124bc565b818160000160009054906101000a900473ffffffffffffffffffffffffffffffffffffffff1673ffffffffffffffffffffffffffffffffffffffff1682600101547f1f2510f9f76c22fb17b38d60ee5215a4d4987fdfa2f85b025dc03395190345e260405160405180910390a45050612afb565b8060050160009054906101000a900467ffffffffffffffff1667ffffffffffffffff168760a0015167ffffffffffffffff1610158015612d8157508060050160089054906101000a900467ffffffffffffffff168160050160009054906101000a900467ffffffffffffffff16612d669190613c4d565b67ffffffffffffffff168760a0015167ffffffffffffffff16105b15612e575760008160050160106101000a81548160ff02191690836002811115612dd4577f4e487b7100000000000000000000000000000000000000000000000000000000600052602160045260246000fd5b0217905550612de386866124bc565b818160000160009054906101000a900473ffffffffffffffffffffffffffffffffffffffff1673ffffffffffffffffffffffffffffffffffffffff1682600101547f1f2510f9f76c22fb17b38d60ee5215a4d4987fdfa2f85b025dc03395190345e260405160405180910390a45050612afb565b8480612e6290613d9a565b9550505050612afb565b5050505050565b604051806101000160405280600073ffffffffffffffffffffffffffffffffffffffff16815260200160008152602001600073ffffffffffffffffffffffffffffffffffffffff1681526020016000815260200160008152602001600067ffffffffffffffff168152602001600067ffffffffffffffff16815260200160006002811115612f2a577f4e487b7100000000000000000000000000000000000000000000000000000000600052602160045260246000fd5b81525090565b6040518060400160405280600073ffffffffffffffffffffffffffffffffffffffff168152602001600081525090565b600081359050612f6f81613e84565b92915050565b600081519050612f8481613e84565b92915050565b600081519050612f9981613e9b565b92915050565b600081359050612fae81613eb2565b92915050565b60006101008284031215612fc757600080fd5b612fd2610100613bb5565b90506000612fe284828501612f60565b6000830152506020612ff6848285016130c6565b602083015250604061300a84828501612f60565b604083015250606061301e848285016130c6565b6060830152506080613032848285016130c6565b60808301525060a0613046848285016130f0565b60a08301525060c061305a848285016130f0565b60c08301525060e061306e84828501612f9f565b60e08301525092915050565b60006040828403121561308c57600080fd5b6130966040613bb5565b905060006130a684828501612f75565b60008301525060206130ba848285016130db565b60208301525092915050565b6000813590506130d581613ec2565b92915050565b6000815190506130ea81613ec2565b92915050565b6000813590506130ff81613ed9565b92915050565b60006020828403121561311757600080fd5b600061312584828501612f75565b91505092915050565b60006020828403121561314057600080fd5b600061314e84828501612f8a565b91505092915050565b6000610100828403121561316a57600080fd5b600061317884828501612fb4565b91505092915050565b60006040828403121561319357600080fd5b60006131a18482850161307a565b91505092915050565b6000602082840312156131bc57600080fd5b60006131ca848285016130c6565b91505092915050565b6000602082840312156131e557600080fd5b60006131f3848285016130db565b91505092915050565b6000806040838503121561320f57600080fd5b600061321d858286016130c6565b925050602061322e858286016130c6565b9150509250929050565b61324181613d19565b82525050565b61325081613d19565b82525050565b61325f81613d88565b82525050565b6000613272602c83613be6565b91507f74686520626964206e6565647320746f20626520626574746572207468616e2060008301527f63757272656e74206269647300000000000000000000000000000000000000006020830152604082019050919050565b60006132d8601683613be6565b91507f74686520626964206d75737420626520616374697665000000000000000000006000830152602082019050919050565b6000613318602683613be6565b91507f626964206d7573742062652067726561746572206f7220657175616c20746f2060008301527f6d696e42696400000000000000000000000000000000000000000000000000006020830152604082019050919050565b600061337e602783613be6565b91507f74686520737461727454696d65206e6565647320746f20626520696e2074686560008301527f20667574757265000000000000000000000000000000000000000000000000006020830152604082019050919050565b60006133e4601c83613be6565b91507f746865207374617465206e6565647320746f206265206f7574626964000000006000830152602082019050919050565b6000613424602683613be6565b91507f746865206475726174696f6e206e6565647320746f206265206772617465722060008301527f7468616e203000000000000000000000000000000000000000000000000000006020830152604082019050919050565b600061348a602d83613be6565b91507f626964646572206d757374206265207468652073616d65206173207472616e7360008301527f616374696f6e2073656e646572000000000000000000000000000000000000006020830152604082019050919050565b60006134f0602783613be6565b91507f74686520616476546f6b656e4964206e65656420746f2062652067726174657260008301527f207468616e2030000000000000000000000000000000000000000000000000006020830152604082019050919050565b6000613556601983613be6565b91507f796f75206d7573742062652073757266616365206f776e6572000000000000006000830152602082019050919050565b6000613596602a83613be6565b91507f7468652061756374696f6e206d7573742062652066696e697368656420616e6460008301527f2064656c697665726564000000000000000000000000000000000000000000006020830152604082019050919050565b60006135fc602483613be6565b91507f616c6c6f77616e6365206d697373696e6720666f7220746f6b656e207472616e60008301527f73666572000000000000000000000000000000000000000000000000000000006020830152604082019050919050565b6000613662601883613be6565b91507f6e6f7420656e6f75676820746f6b656e2062616c616e636500000000000000006000830152602082019050919050565b60006136a2602283613be6565b91507f746865206164764552433732312063616e206e6f74206265203020616464726560008301527f73730000000000000000000000000000000000000000000000000000000000006020830152604082019050919050565b6000613708602283613be6565b91507f6164766572746973656d656e74207375726661636520646f206e6f742065786960008301527f73740000000000000000000000000000000000000000000000000000000000006020830152604082019050919050565b600061376e601383613be6565b91507f696e646578206f7574206f6620626f756e6473000000000000000000000000006000830152602082019050919050565b60006137ae601483613be6565b91507f796f75206d7573742062652061206269646465720000000000000000000000006000830152602082019050919050565b610100820160008201516137f86000850182613238565b50602082015161380b6020850182613883565b50604082015161381e6040850182613238565b5060608201516138316060850182613883565b5060808201516138446080850182613883565b5060a082015161385760a08501826138a1565b5060c082015161386a60c08501826138a1565b5060e082015161387d60e0850182613256565b50505050565b61388c81613d6a565b82525050565b61389b81613d6a565b82525050565b6138aa81613d74565b82525050565b60006020820190506138c56000830184613247565b92915050565b60006040820190506138e06000830185613247565b6138ed6020830184613247565b9392505050565b60006060820190506139096000830186613247565b6139166020830185613247565b6139236040830184613892565b949350505050565b60006040820190506139406000830185613247565b61394d6020830184613892565b9392505050565b6000602082019050818103600083015261396d81613265565b9050919050565b6000602082019050818103600083015261398d816132cb565b9050919050565b600060208201905081810360008301526139ad8161330b565b9050919050565b600060208201905081810360008301526139cd81613371565b9050919050565b600060208201905081810360008301526139ed816133d7565b9050919050565b60006020820190508181036000830152613a0d81613417565b9050919050565b60006020820190508181036000830152613a2d8161347d565b9050919050565b60006020820190508181036000830152613a4d816134e3565b9050919050565b60006020820190508181036000830152613a6d81613549565b9050919050565b60006020820190508181036000830152613a8d81613589565b9050919050565b60006020820190508181036000830152613aad816135ef565b9050919050565b60006020820190508181036000830152613acd81613655565b9050919050565b60006020820190508181036000830152613aed81613695565b9050919050565b60006020820190508181036000830152613b0d816136fb565b9050919050565b60006020820190508181036000830152613b2d81613761565b9050919050565b60006020820190508181036000830152613b4d816137a1565b9050919050565b600061010082019050613b6a60008301846137e1565b92915050565b6000602082019050613b856000830184613892565b92915050565b600061012082019050613ba16000830185613892565b613bae60208301846137e1565b9392505050565b6000604051905081810181811067ffffffffffffffff82111715613bdc57613bdb613e41565b5b8060405250919050565b600082825260208201905092915050565b6000613c0282613d6a565b9150613c0d83613d6a565b9250827fffffffffffffffffffffffffffffffffffffffffffffffffffffffffffffffff03821115613c4257613c41613de3565b5b828201905092915050565b6000613c5882613d74565b9150613c6383613d74565b92508267ffffffffffffffff03821115613c8057613c7f613de3565b5b828201905092915050565b6000613c9682613d6a565b9150613ca183613d6a565b9250817fffffffffffffffffffffffffffffffffffffffffffffffffffffffffffffffff0483118215151615613cda57613cd9613de3565b5b828202905092915050565b6000613cf082613d6a565b9150613cfb83613d6a565b925082821015613d0e57613d0d613de3565b5b828203905092915050565b6000613d2482613d4a565b9050919050565b60008115159050919050565b6000819050613d4582613e70565b919050565b600073ffffffffffffffffffffffffffffffffffffffff82169050919050565b6000819050919050565b600067ffffffffffffffff82169050919050565b6000613d9382613d37565b9050919050565b6000613da582613d6a565b91507fffffffffffffffffffffffffffffffffffffffffffffffffffffffffffffffff821415613dd857613dd7613de3565b5b600182019050919050565b7f4e487b7100000000000000000000000000000000000000000000000000000000600052601160045260246000fd5b7f4e487b7100000000000000000000000000000000000000000000000000000000600052602160045260246000fd5b7f4e487b7100000000000000000000000000000000000000000000000000000000600052604160045260246000fd5b60038110613e8157613e80613e12565b5b50565b613e8d81613d19565b8114613e9857600080fd5b50565b613ea481613d2b565b8114613eaf57600080fd5b50565b60038110613ebf57600080fd5b50565b613ecb81613d6a565b8114613ed657600080fd5b50565b613ee281613d74565b8114613eed57600080fd5b5056fea26469706673582212204f0b2cbc71a144bdd413e82dc8878c26c959da9027bba657e90dc5796ad73dda64736f6c63430008000033",
  "immutableReferences": {},
  "source": "// SPDX-License-Identifier: MIT\npragma solidity ^0.8.0;\n\nimport \"@openzeppelin/contracts/utils/math/SafeMath.sol\";\n\nimport \"./IAdvertisementSurfaceAuction.sol\";\nimport \"./AdvertisementSurfacePayments.sol\";\nimport \"./IAdvertisementSurface.sol\";\n\n/// @author Marcin Gorzynski\n/// @title The Advertisement Surface Auction functionality\n/// @notice The contract used to auctioning advertisement on advertisement surfaces\ncontract AdvertisementSurfaceAuction is IAdvertisementSurfaceAuction {\n\n    using SafeMath for uint256;\n\n    /// @dev The advertisement surface ERC721 contract\n    IAdvertisementSurface private advertisementSurface;\n\n    /// @notice The event emitted when new highest bid is added\n    event LogActive(uint256 indexed tokenId, address indexed bidder, uint256 indexed bidId);\n    /// @notice The event emitted when bid is outbid by another bid\n    event LogOutbid(uint256 indexed tokenId, address indexed bidder, uint256 indexed bidId);\n    /// @notice The event emitted when bid is finished, advertisement has been executed and ERC721 has been paid\n    event LogFinished(uint256 indexed tokenId, address indexed receiver, uint256 indexed bidId);\n\n    /// @dev The array of all bids ever made\n    Bid[] private bids;\n\n    /// @dev The count of all bids made\n    uint256 private bidsCount;\n\n    /// @dev The mapping between advertisement surface token id and bool that indicates if there are any bid for that token\n    mapping(uint256 => bool) private surTokenIdHasBids;\n    /// @dev The mapping between advertisement surface token id and array of the bids made for that surface\n    mapping(uint256 => uint256[]) private surTokenIdToBidIds;\n    /// @dev The mapping between advertisement surface token id and array of active the bids made for that surface\n    mapping(uint256 => uint256[]) private surTokenIdToActiveBidIds;\n    /// @dev The mapping between bidders address and array of the bids made from that address\n    mapping(address => uint256[]) private addressToBidIds;\n\n    /// @notice The modifier validating bid structure\n    /// @param _bid The bid to be validated\n    modifier validateBid(Bid memory _bid) {\n        require(_surfaceExists(_bid.surTokenId), \"advertisement surface do not exist\");\n        require(_bid.bidder == msg.sender, \"bidder must be the same as transaction sender\");\n        require(_bid.advERC721 != address(0), \"the advERC721 can not be 0 address\");\n        require(_bid.advTokenId != 0, \"the advTokenId need to be grater than 0\");\n        require(_bid.bid >= _paymentInfo(_bid.surTokenId).minBid, \"bid must be greater or equal to minBid\");\n        require(_bid.startTime > block.timestamp, \"the startTime needs to be in the future\");\n        require(_bid.duration > 0, \"the duration needs to be grater than 0\");\n        require(_bid.state == BidState.Active, \"the bid must be active\");\n        _;\n    }\n\n    /// @notice The modifier checking if payment can be done from msg.sender\n    /// @param _tokenId The advertisement surface token id\n    /// @param _amount The amount of erc20 token to be transferred\n    modifier checkPayment(uint256 _tokenId, uint256 _amount) {\n        IERC20 erc20 = IERC20(advertisementSurface.getPaymentInfo(_tokenId).erc20);\n        require(erc20.allowance(msg.sender, address(this)) >= _amount, \"allowance missing for token transfer\");\n        require(erc20.balanceOf(msg.sender) >= _amount, \"not enough token balance\");\n        _;\n    }\n\n    /// @notice The modifier checking is bidder is executing transaction\n    /// @param _bidId The bid id for which check is being done\n    modifier isBidder(uint256 _bidId) {\n        require(msg.sender == bids[_bidId].bidder, \"you must be a bidder\");\n        _;\n    }\n\n    /// @notice The modifier checking if advertisement surface owner is executing transaction\n    /// @param _bidId The bid id for which check is being done\n    modifier isSurfaceOwner(uint256 _bidId) {\n        require(msg.sender == advertisementSurface.ownerOf(bids[_bidId].surTokenId), \"you must be surface owner\");\n        _;\n    }\n\n    /// @notice The modifier checking if bid has been outbid\n    /// @param _bidId The bid id for which check is being done\n    modifier isOutBid(uint256 _bidId) {\n        require(bids[_bidId].state == BidState.Outbid, \"the state needs to be outbid\");\n        _;\n    }\n\n    /// @notice The modifier checking if bid has been finished and executed\n    /// @param _bidId The bid id for which check is being done\n    modifier isFinished(uint256 _bidId) {\n        require(\n            bids[_bidId].state == BidState.Active && bids[_bidId].startTime + bids[_bidId].duration < block.timestamp,\n            \"the auction must be finished and delivered\"\n        );\n        _;\n    }\n\n    /// @notice The constructor of advertisement surface auction contract\n    /// @param _advertisementSurface The advertisement surface ERC721 contract address\n    constructor(address _advertisementSurface) {\n        advertisementSurface = IAdvertisementSurface(_advertisementSurface);\n    }\n\n    /// @notice Gets the number of bids in the contract\n    /// @return Number of bids\n    function getBidCount() external override view returns (uint256) {\n        return bidsCount;\n    }\n\n    /// @notice Gets bid structure for given bid id\n    /// @param _bidId The id of the bid\n    /// @return The bid structure\n    function getBid(uint256 _bidId) external override view returns(Bid memory) {\n        return bids[_bidId];\n    }\n\n    /// @notice Gets the number of the bids made by msg sender\n    /// @return The number of bids made by msg sender\n    function getMyBidsCount() external override view returns(uint256) {\n        return addressToBidIds[msg.sender].length;\n    }\n\n    /// @notice Gets bid id and bid structure for given index od msg sender bids\n    /// @param _index The index in the array\n    /// @return The bid id and bid structure\n    function getMyBid(uint256 _index) external override view returns(uint256, Bid memory) {\n        uint256 bidId = addressToBidIds[msg.sender][_index];\n        return (bidId, bids[bidId]);\n    }\n\n    /// @notice Gets the number of bids for given advertisement surface\n    /// @param _tokenId The advertisement surface id\n    /// @return The number of bids for advertisement surface\n    function getSurfaceBidCount(uint256 _tokenId) external override view returns(uint256) {\n        if (surTokenIdHasBids[_tokenId] == false) {\n            return 0;\n        }\n        return surTokenIdToBidIds[_tokenId].length;\n    }\n\n    /// @notice Gets bid id and bid structure for advertisement surface id and index\n    /// @param _tokenId The advertisement surface id\n    /// @param _index The index of the bid\n    /// @return The bid id and bid structure\n    function getSurfaceBid(uint256 _tokenId, uint256 _index) external override view returns(uint256, Bid memory) {\n        uint256 bidId = surTokenIdToBidIds[_tokenId][_index];\n        return (bidId, bids[bidId]);\n    }\n\n    /// @notice Get active bid count. The active bid is winning bid.\n    /// @param _tokenId The advertisement surface id\n    /// @return The number of active bids\n    function getActiveBidCount(uint256 _tokenId) external override view returns(uint256) {\n        if (surTokenIdHasBids[_tokenId] == false) {\n            return 0;\n        }\n        return surTokenIdToActiveBidIds[_tokenId].length;\n    }\n\n    /// @notice Gets active bid id and bid structure for advertisement surface id and index\n    /// @param _tokenId The advertisement surface id\n    /// @param _index The index of the bid\n    /// @return The bid id and bid structure\n    function getActiveBid(uint256 _tokenId, uint256 _index) external override view returns(uint256, Bid memory) {\n        uint256 bidId = surTokenIdToActiveBidIds[_tokenId][_index];\n        return (bidId, bids[bidId]);\n    }\n\n    /// @notice Creates new bid for advertisement surface\n    /// @param _bid The bid structure defining the bid\n    function newBid(Bid memory _bid) external override validateBid(_bid) checkPayment(_bid.surTokenId, _bid.bid * _bid.duration) {\n        _processBid(_bid);\n\n        bids.push(_bid);\n        bidsCount = bidsCount + 1;\n\n        uint256 index = bidsCount - 1;\n        surTokenIdToBidIds[_bid.surTokenId].push(index);\n        surTokenIdToActiveBidIds[_bid.surTokenId].push(index);\n        addressToBidIds[msg.sender].push(index);\n\n        surTokenIdHasBids[_bid.surTokenId] = true;\n\n        IAdvertisementSurface.PaymentInfo memory paymentInfo = _paymentInfo(_bid.surTokenId);\n        IERC20(paymentInfo.erc20).transferFrom(msg.sender, address(this), _bid.bid * _bid.duration);\n\n        emit LogActive(_bid.surTokenId, _bid.bidder, index);\n    }\n\n    /// @notice Refunds bid in case this bid has been outbid by someone else\n    /// @param _bidId The bid id to refund payment\n    function refundBid(uint256 _bidId) isBidder(_bidId) isOutBid(_bidId) external override {\n        Bid storage bid = bids[_bidId];\n        bid.state = BidState.Finished;\n\n        IAdvertisementSurface.PaymentInfo memory paymentInfo = _paymentInfo(bid.surTokenId);\n        IERC20 erc20Contract = IERC20(paymentInfo.erc20);\n\n        uint256 preBalance = erc20Contract.balanceOf(address(this));\n        erc20Contract.transfer(msg.sender, bid.bid * bid.duration);\n\n        /// this will never happen as re-entrance would fail at validateBid, however it's here to satisfy project requirements\n        assert(preBalance - erc20Contract.balanceOf(address(this)) == bid.bid * bid.duration);\n\n        emit LogFinished(bid.surTokenId, msg.sender, _bidId);\n    }\n\n    /// @notice Collects payment from bid in when advertisement has been already shown\n    /// @param _bidId The bid id to collect payment\n    function collectBid(uint256 _bidId) isSurfaceOwner(_bidId) isFinished(_bidId) external override {\n        Bid storage bid = bids[_bidId];\n        if (bid.state == BidState.Active) {\n            uint256[] storage activeBids = surTokenIdToActiveBidIds[bid.surTokenId];\n            for (uint256 i = 0; i < activeBids.length; i++) {\n                if (activeBids[i] == _bidId) {\n                    _removeBidFromActive(activeBids, i);\n                    break;\n                }\n            }\n        }\n        bid.state = BidState.Finished;\n\n        IAdvertisementSurface.PaymentInfo memory paymentInfo = _paymentInfo(bid.surTokenId);\n        IERC20 erc20Contract = IERC20(paymentInfo.erc20);\n\n        uint256 preBalance = erc20Contract.balanceOf(address(this));\n        erc20Contract.transfer(msg.sender, bid.bid * bid.duration);\n\n        /// this will never happen as re-entrance would fail at validateBid, however it's here to satisfy project requirements\n        assert(preBalance - erc20Contract.balanceOf(address(this)) == bid.bid * bid.duration);\n\n        emit LogFinished(bid.surTokenId, msg.sender, _bidId);\n    }\n\n    /// @notice Calculates how much the bid is worth. It's required to decide which bid outbids the other bid.\n    /// @param _bid The bid structure\n    /// @return The number of tokens that can be collected or refunded from the bid\n    function getBidWorth(Bid memory _bid) external override pure returns (uint256) {\n        return _getBidWorth(_bid);\n    }\n\n    function _getBidWorth(Bid memory _bid) internal pure returns (uint256) {\n        return _bid.duration * _bid.bid;\n    }\n\n    /// @notice Process new bid checking if it's highest bid and altering states of all bids\n    /// @param _bid The new bid\n    function _processBid(Bid memory _bid) internal {\n        uint256[] storage activeBids = surTokenIdToActiveBidIds[_bid.surTokenId];\n\n        uint256 i = 0;\n        uint256 overlapBidsWorth;\n        for (i = 0; i < activeBids.length; i++) {\n            uint256 _bid2Id = activeBids[i];\n            Bid memory _bid2 = bids[_bid2Id];\n            if (_bid.startTime <= _bid2.startTime && _bid.startTime + _bid.duration > _bid2.startTime) {\n                overlapBidsWorth += _getBidWorth(_bid2);\n                continue;\n            }\n            if (_bid.startTime >= _bid2.startTime && _bid.startTime < _bid2.startTime + _bid2.duration) {\n                overlapBidsWorth += _getBidWorth(_bid2);\n                continue;\n            }\n        }\n\n        bool isBetter = _getBidWorth(_bid) > overlapBidsWorth;\n        if (!isBetter) {\n            revert(\"the bid needs to be better than current bids\");\n        }\n        _bid.state = BidState.Active;\n\n        i = 0;\n        while (i < activeBids.length) {\n            uint256 _bid2Id = activeBids[i];\n            Bid storage _bid2 = bids[_bid2Id];\n            if (_bid.startTime <= _bid2.startTime && _bid.startTime + _bid.duration > _bid2.startTime) {\n                _bid2.state = BidState.Outbid;\n                _removeBidFromActive(activeBids, i);\n\n                emit LogOutbid(_bid2.surTokenId, _bid2.bidder, _bid2Id);\n\n                continue;\n            }\n            if (_bid.startTime >= _bid2.startTime && _bid.startTime < _bid2.startTime + _bid2.duration) {\n                _bid2.state = BidState.Outbid;\n                _removeBidFromActive(activeBids, i);\n\n                emit LogOutbid(_bid2.surTokenId, _bid2.bidder, _bid2Id);\n\n                continue;\n            }\n            i++;\n        }\n    }\n\n    /// @notice Removed the bid from the array\n    /// @param _array The array from which bid should be removed\n    /// @param _index The index of the bid\n    function _removeBidFromActive(uint256[] storage _array, uint256 _index) internal {\n        require(_index < _array.length, \"index out of bounds\");\n        _array[_index] = _array[_array.length - 1];\n        _array.pop();\n    }\n\n    /// @notice Checks if advertisement surface exists\n    /// @param _tokenId The token id existence to be checked\n    function _surfaceExists(uint256 _tokenId) internal view returns (bool) {\n        return advertisementSurface.advertisementSurfaceExists(_tokenId);\n    }\n\n    /// @notice Gets payment info for given advertisement surface token\n    /// @param _tokenId The token id of the advertisement surface\n    function _paymentInfo(uint256 _tokenId) internal view returns (IAdvertisementSurface.PaymentInfo memory) {\n        return advertisementSurface.getPaymentInfo(_tokenId);\n    }\n\n}",
  "sourcePath": "/Users/marcin/Prywatne/dAdvrtMarket/contracts/AdvertisementMarket/AdvertisementSurface/AdvertisementSurfaceAuction.sol",
  "compiler": {
    "name": "solc",
    "version": "0.8.0+commit.c7dfd78e.Emscripten.clang"
  },
  "schemaVersion": "3.4.3",
  "updatedAt": "2021-11-19T16:51:54.033Z",
  "networkType": "ethereum",
  "devdoc": {
    "author": "Marcin Gorzynski",
    "kind": "dev",
    "methods": {
      "collectBid(uint256)": {
        "params": {
          "_bidId": "The bid id to collect payment"
        }
      },
      "constructor": {
        "params": {
          "_advertisementSurface": "The advertisement surface ERC721 contract address"
        }
      },
      "getActiveBid(uint256,uint256)": {
        "params": {
          "_index": "The index of the bid",
          "_tokenId": "The advertisement surface id"
        },
        "returns": {
          "_0": "The bid id and bid structure"
        }
      },
      "getActiveBidCount(uint256)": {
        "params": {
          "_tokenId": "The advertisement surface id"
        },
        "returns": {
          "_0": "The number of active bids"
        }
      },
      "getBid(uint256)": {
        "params": {
          "_bidId": "The id of the bid"
        },
        "returns": {
          "_0": "The bid structure"
        }
      },
      "getBidCount()": {
        "returns": {
          "_0": "Number of bids"
        }
      },
      "getBidWorth((address,uint256,address,uint256,uint256,uint64,uint64,uint8))": {
        "params": {
          "_bid": "The bid structure"
        },
        "returns": {
          "_0": "The number of tokens that can be collected or refunded from the bid"
        }
      },
      "getMyBid(uint256)": {
        "params": {
          "_index": "The index in the array"
        },
        "returns": {
          "_0": "The bid id and bid structure"
        }
      },
      "getMyBidsCount()": {
        "returns": {
          "_0": "The number of bids made by msg sender"
        }
      },
      "getSurfaceBid(uint256,uint256)": {
        "params": {
          "_index": "The index of the bid",
          "_tokenId": "The advertisement surface id"
        },
        "returns": {
          "_0": "The bid id and bid structure"
        }
      },
      "getSurfaceBidCount(uint256)": {
        "params": {
          "_tokenId": "The advertisement surface id"
        },
        "returns": {
          "_0": "The number of bids for advertisement surface"
        }
      },
      "newBid((address,uint256,address,uint256,uint256,uint64,uint64,uint8))": {
        "params": {
          "_bid": "The bid structure defining the bid"
        }
      },
      "refundBid(uint256)": {
        "params": {
          "_bidId": "The bid id to refund payment"
        }
      }
    },
    "stateVariables": {
      "addressToBidIds": {
        "details": "The mapping between bidders address and array of the bids made from that address"
      },
      "advertisementSurface": {
        "details": "The advertisement surface ERC721 contract"
      },
      "bids": {
        "details": "The array of all bids ever made"
      },
      "bidsCount": {
        "details": "The count of all bids made"
      },
      "surTokenIdHasBids": {
        "details": "The mapping between advertisement surface token id and bool that indicates if there are any bid for that token"
      },
      "surTokenIdToActiveBidIds": {
        "details": "The mapping between advertisement surface token id and array of active the bids made for that surface"
      },
      "surTokenIdToBidIds": {
        "details": "The mapping between advertisement surface token id and array of the bids made for that surface"
      }
    },
    "title": "The Advertisement Surface Auction functionality",
    "version": 1
  },
  "userdoc": {
    "events": {
      "LogActive(uint256,address,uint256)": {
        "notice": "The event emitted when new highest bid is added"
      },
      "LogFinished(uint256,address,uint256)": {
        "notice": "The event emitted when bid is finished, advertisement has been executed and ERC721 has been paid"
      },
      "LogOutbid(uint256,address,uint256)": {
        "notice": "The event emitted when bid is outbid by another bid"
      }
    },
    "kind": "user",
    "methods": {
      "collectBid(uint256)": {
        "notice": "Collects payment from bid in when advertisement has been already shown"
      },
      "constructor": {
        "notice": "The constructor of advertisement surface auction contract"
      },
      "getActiveBid(uint256,uint256)": {
        "notice": "Gets active bid id and bid structure for advertisement surface id and index"
      },
      "getActiveBidCount(uint256)": {
        "notice": "Get active bid count. The active bid is winning bid."
      },
      "getBid(uint256)": {
        "notice": "Gets bid structure for given bid id"
      },
      "getBidCount()": {
        "notice": "Gets the number of bids in the contract"
      },
      "getBidWorth((address,uint256,address,uint256,uint256,uint64,uint64,uint8))": {
        "notice": "Calculates how much the bid is worth. It's required to decide which bid outbids the other bid."
      },
      "getMyBid(uint256)": {
        "notice": "Gets bid id and bid structure for given index od msg sender bids"
      },
      "getMyBidsCount()": {
        "notice": "Gets the number of the bids made by msg sender"
      },
      "getSurfaceBid(uint256,uint256)": {
        "notice": "Gets bid id and bid structure for advertisement surface id and index"
      },
      "getSurfaceBidCount(uint256)": {
        "notice": "Gets the number of bids for given advertisement surface"
      },
      "newBid((address,uint256,address,uint256,uint256,uint64,uint64,uint8))": {
        "notice": "Creates new bid for advertisement surface"
      },
      "refundBid(uint256)": {
        "notice": "Refunds bid in case this bid has been outbid by someone else"
      }
    },
    "notice": "The contract used to auctioning advertisement on advertisement surfaces",
    "version": 1
  }
}