{
  "contractName": "AdvertisementSurface",
  "abi": [
    {
      "inputs": [],
      "stateMutability": "nonpayable",
      "type": "constructor"
    },
    {
      "anonymous": false,
      "inputs": [
        {
          "indexed": true,
          "internalType": "address",
          "name": "owner",
          "type": "address"
        },
        {
          "indexed": true,
          "internalType": "address",
          "name": "approved",
          "type": "address"
        },
        {
          "indexed": true,
          "internalType": "uint256",
          "name": "tokenId",
          "type": "uint256"
        }
      ],
      "name": "Approval",
      "type": "event"
    },
    {
      "anonymous": false,
      "inputs": [
        {
          "indexed": true,
          "internalType": "address",
          "name": "owner",
          "type": "address"
        },
        {
          "indexed": true,
          "internalType": "address",
          "name": "operator",
          "type": "address"
        },
        {
          "indexed": false,
          "internalType": "bool",
          "name": "approved",
          "type": "bool"
        }
      ],
      "name": "ApprovalForAll",
      "type": "event"
    },
    {
      "anonymous": false,
      "inputs": [
        {
          "indexed": true,
          "internalType": "address",
          "name": "from",
          "type": "address"
        },
        {
          "indexed": true,
          "internalType": "address",
          "name": "to",
          "type": "address"
        },
        {
          "indexed": true,
          "internalType": "uint256",
          "name": "tokenId",
          "type": "uint256"
        }
      ],
      "name": "Transfer",
      "type": "event"
    },
    {
      "inputs": [
        {
          "internalType": "address",
          "name": "to",
          "type": "address"
        },
        {
          "internalType": "uint256",
          "name": "tokenId",
          "type": "uint256"
        }
      ],
      "name": "approve",
      "outputs": [],
      "stateMutability": "nonpayable",
      "type": "function"
    },
    {
      "inputs": [
        {
          "internalType": "address",
          "name": "owner",
          "type": "address"
        }
      ],
      "name": "balanceOf",
      "outputs": [
        {
          "internalType": "uint256",
          "name": "",
          "type": "uint256"
        }
      ],
      "stateMutability": "view",
      "type": "function",
      "constant": true
    },
    {
      "inputs": [
        {
          "internalType": "uint256",
          "name": "tokenId",
          "type": "uint256"
        }
      ],
      "name": "getApproved",
      "outputs": [
        {
          "internalType": "address",
          "name": "",
          "type": "address"
        }
      ],
      "stateMutability": "view",
      "type": "function",
      "constant": true
    },
    {
      "inputs": [
        {
          "internalType": "address",
          "name": "owner",
          "type": "address"
        },
        {
          "internalType": "address",
          "name": "operator",
          "type": "address"
        }
      ],
      "name": "isApprovedForAll",
      "outputs": [
        {
          "internalType": "bool",
          "name": "",
          "type": "bool"
        }
      ],
      "stateMutability": "view",
      "type": "function",
      "constant": true
    },
    {
      "inputs": [],
      "name": "name",
      "outputs": [
        {
          "internalType": "string",
          "name": "",
          "type": "string"
        }
      ],
      "stateMutability": "view",
      "type": "function",
      "constant": true
    },
    {
      "inputs": [
        {
          "internalType": "uint256",
          "name": "tokenId",
          "type": "uint256"
        }
      ],
      "name": "ownerOf",
      "outputs": [
        {
          "internalType": "address",
          "name": "",
          "type": "address"
        }
      ],
      "stateMutability": "view",
      "type": "function",
      "constant": true
    },
    {
      "inputs": [
        {
          "internalType": "address",
          "name": "from",
          "type": "address"
        },
        {
          "internalType": "address",
          "name": "to",
          "type": "address"
        },
        {
          "internalType": "uint256",
          "name": "tokenId",
          "type": "uint256"
        }
      ],
      "name": "safeTransferFrom",
      "outputs": [],
      "stateMutability": "nonpayable",
      "type": "function"
    },
    {
      "inputs": [
        {
          "internalType": "address",
          "name": "from",
          "type": "address"
        },
        {
          "internalType": "address",
          "name": "to",
          "type": "address"
        },
        {
          "internalType": "uint256",
          "name": "tokenId",
          "type": "uint256"
        },
        {
          "internalType": "bytes",
          "name": "_data",
          "type": "bytes"
        }
      ],
      "name": "safeTransferFrom",
      "outputs": [],
      "stateMutability": "nonpayable",
      "type": "function"
    },
    {
      "inputs": [
        {
          "internalType": "address",
          "name": "operator",
          "type": "address"
        },
        {
          "internalType": "bool",
          "name": "approved",
          "type": "bool"
        }
      ],
      "name": "setApprovalForAll",
      "outputs": [],
      "stateMutability": "nonpayable",
      "type": "function"
    },
    {
      "inputs": [],
      "name": "symbol",
      "outputs": [
        {
          "internalType": "string",
          "name": "",
          "type": "string"
        }
      ],
      "stateMutability": "view",
      "type": "function",
      "constant": true
    },
    {
      "inputs": [
        {
          "internalType": "uint256",
          "name": "index",
          "type": "uint256"
        }
      ],
      "name": "tokenByIndex",
      "outputs": [
        {
          "internalType": "uint256",
          "name": "",
          "type": "uint256"
        }
      ],
      "stateMutability": "view",
      "type": "function",
      "constant": true
    },
    {
      "inputs": [
        {
          "internalType": "address",
          "name": "owner",
          "type": "address"
        },
        {
          "internalType": "uint256",
          "name": "index",
          "type": "uint256"
        }
      ],
      "name": "tokenOfOwnerByIndex",
      "outputs": [
        {
          "internalType": "uint256",
          "name": "",
          "type": "uint256"
        }
      ],
      "stateMutability": "view",
      "type": "function",
      "constant": true
    },
    {
      "inputs": [],
      "name": "totalSupply",
      "outputs": [
        {
          "internalType": "uint256",
          "name": "",
          "type": "uint256"
        }
      ],
      "stateMutability": "view",
      "type": "function",
      "constant": true
    },
    {
      "inputs": [
        {
          "internalType": "address",
          "name": "from",
          "type": "address"
        },
        {
          "internalType": "address",
          "name": "to",
          "type": "address"
        },
        {
          "internalType": "uint256",
          "name": "tokenId",
          "type": "uint256"
        }
      ],
      "name": "transferFrom",
      "outputs": [],
      "stateMutability": "nonpayable",
      "type": "function"
    },
    {
      "inputs": [
        {
          "internalType": "bytes4",
          "name": "interfaceId",
          "type": "bytes4"
        }
      ],
      "name": "supportsInterface",
      "outputs": [
        {
          "internalType": "bool",
          "name": "",
          "type": "bool"
        }
      ],
      "stateMutability": "view",
      "type": "function",
      "constant": true
    },
    {
      "inputs": [
        {
          "internalType": "string",
          "name": "_tokenURI",
          "type": "string"
        },
        {
          "components": [
            {
              "internalType": "address",
              "name": "erc20",
              "type": "address"
            },
            {
              "internalType": "uint256",
              "name": "minBid",
              "type": "uint256"
            }
          ],
          "internalType": "struct IAdvertisementSurfacePayments.PaymentInfo",
          "name": "_paymentInfo",
          "type": "tuple"
        }
      ],
      "name": "registerAdvertisementSurface",
      "outputs": [],
      "stateMutability": "nonpayable",
      "type": "function"
    },
    {
      "inputs": [
        {
          "internalType": "uint256",
          "name": "_tokenId",
          "type": "uint256"
        }
      ],
      "name": "advertisementSurfaceExists",
      "outputs": [
        {
          "internalType": "bool",
          "name": "",
          "type": "bool"
        }
      ],
      "stateMutability": "view",
      "type": "function",
      "constant": true
    },
    {
      "inputs": [
        {
          "internalType": "uint256",
          "name": "_tokenId",
          "type": "uint256"
        }
      ],
      "name": "getPaymentInfo",
      "outputs": [
        {
          "components": [
            {
              "internalType": "address",
              "name": "erc20",
              "type": "address"
            },
            {
              "internalType": "uint256",
              "name": "minBid",
              "type": "uint256"
            }
          ],
          "internalType": "struct IAdvertisementSurfacePayments.PaymentInfo",
          "name": "",
          "type": "tuple"
        }
      ],
      "stateMutability": "view",
      "type": "function",
      "constant": true
    },
    {
      "inputs": [
        {
          "internalType": "uint256",
          "name": "_tokenId",
          "type": "uint256"
        },
        {
          "components": [
            {
              "internalType": "address",
              "name": "erc20",
              "type": "address"
            },
            {
              "internalType": "uint256",
              "name": "minBid",
              "type": "uint256"
            }
          ],
          "internalType": "struct IAdvertisementSurfacePayments.PaymentInfo",
          "name": "_paymentInfo",
          "type": "tuple"
        }
      ],
      "name": "setPaymentInfo",
      "outputs": [],
      "stateMutability": "nonpayable",
      "type": "function"
    },
    {
      "inputs": [
        {
          "internalType": "uint256",
          "name": "tokenId",
          "type": "uint256"
        }
      ],
      "name": "tokenURI",
      "outputs": [
        {
          "internalType": "string",
          "name": "",
          "type": "string"
        }
      ],
      "stateMutability": "view",
      "type": "function",
      "constant": true
    }
  ],
  "bytecode": "0x60806040523480156200001157600080fd5b506040518060400160405280601581526020017f4164766572746973656d656e74205375726661636500000000000000000000008152506040518060400160405280600381526020017f4144530000000000000000000000000000000000000000000000000000000000815250816000908051906020019062000096929190620000b8565b508060019080519060200190620000af929190620000b8565b505050620001cd565b828054620000c69062000168565b90600052602060002090601f016020900481019282620000ea576000855562000136565b82601f106200010557805160ff191683800117855562000136565b8280016001018555821562000136579182015b828111156200013557825182559160200191906001019062000118565b5b50905062000145919062000149565b5090565b5b80821115620001645760008160009055506001016200014a565b5090565b600060028204905060018216806200018157607f821691505b602082108114156200019857620001976200019e565b5b50919050565b7f4e487b7100000000000000000000000000000000000000000000000000000000600052602260045260246000fd5b61385080620001dd6000396000f3fe608060405234801561001057600080fd5b506004361061012c5760003560e01c80636352211e116100ad578063b88d4fde11610071578063b88d4fde14610367578063c87b56dd14610383578063c9d13d06146103b3578063d810ff0f146103cf578063e985e9c5146103ff5761012c565b80636352211e146102b157806370a08231146102e157806395d89b4114610311578063a22cb4651461032f578063b32032621461034b5761012c565b806323b872dd116100f457806323b872dd146101e95780632f745c591461020557806342842e0e146102355780634f6ccce7146102515780635f5b6ad4146102815761012c565b806301ffc9a71461013157806306fdde0314610161578063081812fc1461017f578063095ea7b3146101af57806318160ddd146101cb575b600080fd5b61014b600480360381019061014691906127e0565b61042f565b604051610158919061314d565b60405180910390f35b610169610511565b6040516101769190613168565b60405180910390f35b61019960048036038101906101949190612886565b6105a3565b6040516101a691906130e6565b60405180910390f35b6101c960048036038101906101c491906127a4565b610628565b005b6101d3610740565b6040516101e091906133e5565b60405180910390f35b61020360048036038101906101fe919061269e565b61074d565b005b61021f600480360381019061021a91906127a4565b6107ad565b60405161022c91906133e5565b60405180910390f35b61024f600480360381019061024a919061269e565b610852565b005b61026b60048036038101906102669190612886565b610872565b60405161027891906133e5565b60405180910390f35b61029b60048036038101906102969190612886565b610909565b6040516102a8919061314d565b60405180910390f35b6102cb60048036038101906102c69190612886565b61091b565b6040516102d891906130e6565b60405180910390f35b6102fb60048036038101906102f69190612639565b6109cd565b60405161030891906133e5565b60405180910390f35b610319610a85565b6040516103269190613168565b60405180910390f35b61034960048036038101906103449190612768565b610b17565b005b610365600480360381019061036091906128af565b610c98565b005b610381600480360381019061037c91906126ed565b610cf8565b005b61039d60048036038101906103989190612886565b610d5a565b6040516103aa9190613168565b60405180910390f35b6103cd60048036038101906103c89190612832565b610d6c565b005b6103e960048036038101906103e49190612886565b610de1565b6040516103f691906133ca565b60405180910390f35b61041960048036038101906104149190612662565b610e0b565b604051610426919061314d565b60405180910390f35b600061043a82610e9f565b806104a257507f968a57d2000000000000000000000000000000000000000000000000000000007bffffffffffffffffffffffffffffffffffffffffffffffffffffffff1916827bffffffffffffffffffffffffffffffffffffffffffffffffffffffff1916145b8061050a57507f6b30cd6d000000000000000000000000000000000000000000000000000000007bffffffffffffffffffffffffffffffffffffffffffffffffffffffff1916827bffffffffffffffffffffffffffffffffffffffffffffffffffffffff1916145b9050919050565b60606000805461052090613645565b80601f016020809104026020016040519081016040528092919081815260200182805461054c90613645565b80156105995780601f1061056e57610100808354040283529160200191610599565b820191906000526020600020905b81548152906001019060200180831161057c57829003601f168201915b5050505050905090565b60006105ae82610f19565b6105ed576040517f08c379a00000000000000000000000000000000000000000000000000000000081526004016105e49061330a565b60405180910390fd5b6004600083815260200190815260200160002060009054906101000a900473ffffffffffffffffffffffffffffffffffffffff169050919050565b60006106338261091b565b90508073ffffffffffffffffffffffffffffffffffffffff168373ffffffffffffffffffffffffffffffffffffffff1614156106a4576040517f08c379a000000000000000000000000000000000000000000000000000000000815260040161069b9061336a565b60405180910390fd5b8073ffffffffffffffffffffffffffffffffffffffff166106c3610f85565b73ffffffffffffffffffffffffffffffffffffffff1614806106f257506106f1816106ec610f85565b610e0b565b5b610731576040517f08c379a00000000000000000000000000000000000000000000000000000000081526004016107289061324a565b60405180910390fd5b61073b8383610f8d565b505050565b6000600a80549050905090565b61075e610758610f85565b82611046565b61079d576040517f08c379a00000000000000000000000000000000000000000000000000000000081526004016107949061338a565b60405180910390fd5b6107a8838383611124565b505050565b60006107b8836109cd565b82106107f9576040517f08c379a00000000000000000000000000000000000000000000000000000000081526004016107f09061318a565b60405180910390fd5b600860008473ffffffffffffffffffffffffffffffffffffffff1673ffffffffffffffffffffffffffffffffffffffff168152602001908152602001600020600083815260200190815260200160002054905092915050565b61086d83838360405180602001604052806000815250610cf8565b505050565b600061087c610740565b82106108bd576040517f08c379a00000000000000000000000000000000000000000000000000000000081526004016108b4906133aa565b60405180910390fd5b600a82815481106108f7577f4e487b7100000000000000000000000000000000000000000000000000000000600052603260045260246000fd5b90600052602060002001549050919050565b600061091482610f19565b9050919050565b6000806002600084815260200190815260200160002060009054906101000a900473ffffffffffffffffffffffffffffffffffffffff169050600073ffffffffffffffffffffffffffffffffffffffff168173ffffffffffffffffffffffffffffffffffffffff1614156109c4576040517f08c379a00000000000000000000000000000000000000000000000000000000081526004016109bb9061328a565b60405180910390fd5b80915050919050565b60008073ffffffffffffffffffffffffffffffffffffffff168273ffffffffffffffffffffffffffffffffffffffff161415610a3e576040517f08c379a0000000000000000000000000000000000000000000000000000000008152600401610a359061326a565b60405180910390fd5b600360008373ffffffffffffffffffffffffffffffffffffffff1673ffffffffffffffffffffffffffffffffffffffff168152602001908152602001600020549050919050565b606060018054610a9490613645565b80601f0160208091040260200160405190810160405280929190818152602001828054610ac090613645565b8015610b0d5780601f10610ae257610100808354040283529160200191610b0d565b820191906000526020600020905b815481529060010190602001808311610af057829003601f168201915b5050505050905090565b610b1f610f85565b73ffffffffffffffffffffffffffffffffffffffff168273ffffffffffffffffffffffffffffffffffffffff161415610b8d576040517f08c379a0000000000000000000000000000000000000000000000000000000008152600401610b849061320a565b60405180910390fd5b8060056000610b9a610f85565b73ffffffffffffffffffffffffffffffffffffffff1673ffffffffffffffffffffffffffffffffffffffff16815260200190815260200160002060008473ffffffffffffffffffffffffffffffffffffffff1673ffffffffffffffffffffffffffffffffffffffff16815260200190815260200160002060006101000a81548160ff0219169083151502179055508173ffffffffffffffffffffffffffffffffffffffff16610c47610f85565b73ffffffffffffffffffffffffffffffffffffffff167f17307eab39ab6107e8899845ad3d59bd9653f200f220920489ca2b5937696c3183604051610c8c919061314d565b60405180910390a35050565b610ca182610f19565b610caa57600080fd5b610cb38261091b565b73ffffffffffffffffffffffffffffffffffffffff163373ffffffffffffffffffffffffffffffffffffffff1614610cea57600080fd5b610cf48282611380565b5050565b610d09610d03610f85565b83611046565b610d48576040517f08c379a0000000000000000000000000000000000000000000000000000000008152600401610d3f9061338a565b60405180910390fd5b610d548484848461147c565b50505050565b6060610d65826114d8565b9050919050565b600073ffffffffffffffffffffffffffffffffffffffff16816000015173ffffffffffffffffffffffffffffffffffffffff161415610daa57600080fd5b600081602001511415610dbc57600080fd5b6000610dc661162a565b9050610dd2818461165b565b610ddc8183611380565b505050565b610de96123e1565b610df282610f19565b610dfb57600080fd5b610e04826116cf565b9050919050565b6000600560008473ffffffffffffffffffffffffffffffffffffffff1673ffffffffffffffffffffffffffffffffffffffff16815260200190815260200160002060008373ffffffffffffffffffffffffffffffffffffffff1673ffffffffffffffffffffffffffffffffffffffff16815260200190815260200160002060009054906101000a900460ff16905092915050565b60007f780e9d63000000000000000000000000000000000000000000000000000000007bffffffffffffffffffffffffffffffffffffffffffffffffffffffff1916827bffffffffffffffffffffffffffffffffffffffffffffffffffffffff19161480610f125750610f118261175c565b5b9050919050565b60008073ffffffffffffffffffffffffffffffffffffffff166002600084815260200190815260200160002060009054906101000a900473ffffffffffffffffffffffffffffffffffffffff1673ffffffffffffffffffffffffffffffffffffffff1614159050919050565b600033905090565b816004600083815260200190815260200160002060006101000a81548173ffffffffffffffffffffffffffffffffffffffff021916908373ffffffffffffffffffffffffffffffffffffffff160217905550808273ffffffffffffffffffffffffffffffffffffffff166110008361091b565b73ffffffffffffffffffffffffffffffffffffffff167f8c5be1e5ebec7d5bd14f71427d1e84f3dd0314c0f7b2291e5b200ac8c7c3b92560405160405180910390a45050565b600061105182610f19565b611090576040517f08c379a00000000000000000000000000000000000000000000000000000000081526004016110879061322a565b60405180910390fd5b600061109b8361091b565b90508073ffffffffffffffffffffffffffffffffffffffff168473ffffffffffffffffffffffffffffffffffffffff16148061110a57508373ffffffffffffffffffffffffffffffffffffffff166110f2846105a3565b73ffffffffffffffffffffffffffffffffffffffff16145b8061111b575061111a8185610e0b565b5b91505092915050565b8273ffffffffffffffffffffffffffffffffffffffff166111448261091b565b73ffffffffffffffffffffffffffffffffffffffff161461119a576040517f08c379a00000000000000000000000000000000000000000000000000000000081526004016111919061332a565b60405180910390fd5b600073ffffffffffffffffffffffffffffffffffffffff168273ffffffffffffffffffffffffffffffffffffffff16141561120a576040517f08c379a0000000000000000000000000000000000000000000000000000000008152600401611201906131ea565b60405180910390fd5b61121583838361183e565b611220600082610f8d565b6001600360008573ffffffffffffffffffffffffffffffffffffffff1673ffffffffffffffffffffffffffffffffffffffff1681526020019081526020016000206000828254611270919061355b565b925050819055506001600360008473ffffffffffffffffffffffffffffffffffffffff1673ffffffffffffffffffffffffffffffffffffffff16815260200190815260200160002060008282546112c791906134d4565b92505081905550816002600083815260200190815260200160002060006101000a81548173ffffffffffffffffffffffffffffffffffffffff021916908373ffffffffffffffffffffffffffffffffffffffff160217905550808273ffffffffffffffffffffffffffffffffffffffff168473ffffffffffffffffffffffffffffffffffffffff167fddf252ad1be2c89b69c2b068fc378daa952ba7f163c4a11628f55a4df523b3ef60405160405180910390a4505050565b600073ffffffffffffffffffffffffffffffffffffffff166006600084815260200190815260200160002060000160009054906101000a900473ffffffffffffffffffffffffffffffffffffffff1673ffffffffffffffffffffffffffffffffffffffff16141561145857806006600084815260200190815260200160002060008201518160000160006101000a81548173ffffffffffffffffffffffffffffffffffffffff021916908373ffffffffffffffffffffffffffffffffffffffff16021790555060208201518160010155905050611478565b806020015160066000848152602001908152602001600020600101819055505b5050565b611487848484611124565b6114938484848461184e565b6114d2576040517f08c379a00000000000000000000000000000000000000000000000000000000081526004016114c9906131aa565b60405180910390fd5b50505050565b60606114e382610f19565b611522576040517f08c379a0000000000000000000000000000000000000000000000000000000008152600401611519906132ea565b60405180910390fd5b600060076000848152602001908152602001600020805461154290613645565b80601f016020809104026020016040519081016040528092919081815260200182805461156e90613645565b80156115bb5780601f10611590576101008083540402835291602001916115bb565b820191906000526020600020905b81548152906001019060200180831161159e57829003601f168201915b5050505050905060006115cc6119e5565b90506000815114156115e2578192505050611625565b6000825111156116175780826040516020016115ff9291906130c2565b60405160208183030381529060405292505050611625565b61162084611a22565b925050505b919050565b600080611648600161163a610740565b611ac990919063ffffffff16565b90506116543382611adf565b8091505090565b61166482610f19565b6116a3576040517f08c379a000000000000000000000000000000000000000000000000000000000815260040161169a906132aa565b60405180910390fd5b806007600084815260200190815260200160002090805190602001906116ca929190612411565b505050565b6116d76123e1565b600660008381526020019081526020016000206040518060400160405290816000820160009054906101000a900473ffffffffffffffffffffffffffffffffffffffff1673ffffffffffffffffffffffffffffffffffffffff1673ffffffffffffffffffffffffffffffffffffffff1681526020016001820154815250509050919050565b60007f80ac58cd000000000000000000000000000000000000000000000000000000007bffffffffffffffffffffffffffffffffffffffffffffffffffffffff1916827bffffffffffffffffffffffffffffffffffffffffffffffffffffffff1916148061182757507f5b5e139f000000000000000000000000000000000000000000000000000000007bffffffffffffffffffffffffffffffffffffffffffffffffffffffff1916827bffffffffffffffffffffffffffffffffffffffffffffffffffffffff1916145b80611837575061183682611afd565b5b9050919050565b611849838383611b67565b505050565b600061186f8473ffffffffffffffffffffffffffffffffffffffff16611c7b565b156119d8578373ffffffffffffffffffffffffffffffffffffffff1663150b7a02611898610f85565b8786866040518563ffffffff1660e01b81526004016118ba9493929190613101565b602060405180830381600087803b1580156118d457600080fd5b505af192505050801561190557506040513d601f19601f820116820180604052508101906119029190612809565b60015b611988573d8060008114611935576040519150601f19603f3d011682016040523d82523d6000602084013e61193a565b606091505b50600081511415611980576040517f08c379a0000000000000000000000000000000000000000000000000000000008152600401611977906131aa565b60405180910390fd5b805181602001fd5b63150b7a0260e01b7bffffffffffffffffffffffffffffffffffffffffffffffffffffffff1916817bffffffffffffffffffffffffffffffffffffffffffffffffffffffff1916149150506119dd565b600190505b949350505050565b60606040518060400160405280600781526020017f697066733a2f2f00000000000000000000000000000000000000000000000000815250905090565b6060611a2d82610f19565b611a6c576040517f08c379a0000000000000000000000000000000000000000000000000000000008152600401611a639061334a565b60405180910390fd5b6000611a766119e5565b90506000815111611a965760405180602001604052806000815250611ac1565b80611aa084611c8e565b604051602001611ab19291906130c2565b6040516020818303038152906040525b915050919050565b60008183611ad791906134d4565b905092915050565b611af9828260405180602001604052806000815250611e3b565b5050565b60007f01ffc9a7000000000000000000000000000000000000000000000000000000007bffffffffffffffffffffffffffffffffffffffffffffffffffffffff1916827bffffffffffffffffffffffffffffffffffffffffffffffffffffffff1916149050919050565b611b72838383611e96565b600073ffffffffffffffffffffffffffffffffffffffff168373ffffffffffffffffffffffffffffffffffffffff161415611bb557611bb081611e9b565b611bf4565b8173ffffffffffffffffffffffffffffffffffffffff168373ffffffffffffffffffffffffffffffffffffffff1614611bf357611bf28382611ee4565b5b5b600073ffffffffffffffffffffffffffffffffffffffff168273ffffffffffffffffffffffffffffffffffffffff161415611c3757611c3281612051565b611c76565b8273ffffffffffffffffffffffffffffffffffffffff168273ffffffffffffffffffffffffffffffffffffffff1614611c7557611c748282612194565b5b5b505050565b600080823b905060008111915050919050565b60606000821415611cd6576040518060400160405280600181526020017f30000000000000000000000000000000000000000000000000000000000000008152509050611e36565b600082905060005b60008214611d08578080611cf190613677565b915050600a82611d01919061352a565b9150611cde565b60008167ffffffffffffffff811115611d4a577f4e487b7100000000000000000000000000000000000000000000000000000000600052604160045260246000fd5b6040519080825280601f01601f191660200182016040528015611d7c5781602001600182028036833780820191505090505b5090505b60008514611e2f57600182611d95919061355b565b9150600a85611da491906136c0565b6030611db091906134d4565b60f81b818381518110611dec577f4e487b7100000000000000000000000000000000000000000000000000000000600052603260045260246000fd5b60200101907effffffffffffffffffffffffffffffffffffffffffffffffffffffffffffff1916908160001a905350600a85611e28919061352a565b9450611d80565b8093505050505b919050565b611e458383612213565b611e52600084848461184e565b611e91576040517f08c379a0000000000000000000000000000000000000000000000000000000008152600401611e88906131aa565b60405180910390fd5b505050565b505050565b600a80549050600b600083815260200190815260200160002081905550600a81908060018154018082558091505060019003906000526020600020016000909190919091505550565b60006001611ef1846109cd565b611efb919061355b565b9050600060096000848152602001908152602001600020549050818114611fe0576000600860008673ffffffffffffffffffffffffffffffffffffffff1673ffffffffffffffffffffffffffffffffffffffff168152602001908152602001600020600084815260200190815260200160002054905080600860008773ffffffffffffffffffffffffffffffffffffffff1673ffffffffffffffffffffffffffffffffffffffff168152602001908152602001600020600084815260200190815260200160002081905550816009600083815260200190815260200160002081905550505b6009600084815260200190815260200160002060009055600860008573ffffffffffffffffffffffffffffffffffffffff1673ffffffffffffffffffffffffffffffffffffffff16815260200190815260200160002060008381526020019081526020016000206000905550505050565b60006001600a80549050612065919061355b565b90506000600b60008481526020019081526020016000205490506000600a83815481106120bb577f4e487b7100000000000000000000000000000000000000000000000000000000600052603260045260246000fd5b9060005260206000200154905080600a8381548110612103577f4e487b7100000000000000000000000000000000000000000000000000000000600052603260045260246000fd5b906000526020600020018190555081600b600083815260200190815260200160002081905550600b600085815260200190815260200160002060009055600a805480612178577f4e487b7100000000000000000000000000000000000000000000000000000000600052603160045260246000fd5b6001900381819060005260206000200160009055905550505050565b600061219f836109cd565b905081600860008573ffffffffffffffffffffffffffffffffffffffff1673ffffffffffffffffffffffffffffffffffffffff168152602001908152602001600020600083815260200190815260200160002081905550806009600084815260200190815260200160002081905550505050565b600073ffffffffffffffffffffffffffffffffffffffff168273ffffffffffffffffffffffffffffffffffffffff161415612283576040517f08c379a000000000000000000000000000000000000000000000000000000000815260040161227a906132ca565b60405180910390fd5b61228c81610f19565b156122cc576040517f08c379a00000000000000000000000000000000000000000000000000000000081526004016122c3906131ca565b60405180910390fd5b6122d86000838361183e565b6001600360008473ffffffffffffffffffffffffffffffffffffffff1673ffffffffffffffffffffffffffffffffffffffff168152602001908152602001600020600082825461232891906134d4565b92505081905550816002600083815260200190815260200160002060006101000a81548173ffffffffffffffffffffffffffffffffffffffff021916908373ffffffffffffffffffffffffffffffffffffffff160217905550808273ffffffffffffffffffffffffffffffffffffffff16600073ffffffffffffffffffffffffffffffffffffffff167fddf252ad1be2c89b69c2b068fc378daa952ba7f163c4a11628f55a4df523b3ef60405160405180910390a45050565b6040518060400160405280600073ffffffffffffffffffffffffffffffffffffffff168152602001600081525090565b82805461241d90613645565b90600052602060002090601f01602090048101928261243f5760008555612486565b82601f1061245857805160ff1916838001178555612486565b82800160010185558215612486579182015b8281111561248557825182559160200191906001019061246a565b5b5090506124939190612497565b5090565b5b808211156124b0576000816000905550600101612498565b5090565b60006124c76124c284613431565b613400565b9050828152602081018484840111156124df57600080fd5b6124ea848285613603565b509392505050565b600061250561250084613461565b613400565b90508281526020810184848401111561251d57600080fd5b612528848285613603565b509392505050565b60008135905061253f816137be565b92915050565b600081359050612554816137d5565b92915050565b600081359050612569816137ec565b92915050565b60008151905061257e816137ec565b92915050565b600082601f83011261259557600080fd5b81356125a58482602086016124b4565b91505092915050565b600082601f8301126125bf57600080fd5b81356125cf8482602086016124f2565b91505092915050565b6000604082840312156125ea57600080fd5b6125f46040613400565b9050600061260484828501612530565b600083015250602061261884828501612624565b60208301525092915050565b60008135905061263381613803565b92915050565b60006020828403121561264b57600080fd5b600061265984828501612530565b91505092915050565b6000806040838503121561267557600080fd5b600061268385828601612530565b925050602061269485828601612530565b9150509250929050565b6000806000606084860312156126b357600080fd5b60006126c186828701612530565b93505060206126d286828701612530565b92505060406126e386828701612624565b9150509250925092565b6000806000806080858703121561270357600080fd5b600061271187828801612530565b945050602061272287828801612530565b935050604061273387828801612624565b925050606085013567ffffffffffffffff81111561275057600080fd5b61275c87828801612584565b91505092959194509250565b6000806040838503121561277b57600080fd5b600061278985828601612530565b925050602061279a85828601612545565b9150509250929050565b600080604083850312156127b757600080fd5b60006127c585828601612530565b92505060206127d685828601612624565b9150509250929050565b6000602082840312156127f257600080fd5b60006128008482850161255a565b91505092915050565b60006020828403121561281b57600080fd5b60006128298482850161256f565b91505092915050565b6000806060838503121561284557600080fd5b600083013567ffffffffffffffff81111561285f57600080fd5b61286b858286016125ae565b925050602061287c858286016125d8565b9150509250929050565b60006020828403121561289857600080fd5b60006128a684828501612624565b91505092915050565b600080606083850312156128c257600080fd5b60006128d085828601612624565b92505060206128e1858286016125d8565b9150509250929050565b6128f48161358f565b82525050565b6129038161358f565b82525050565b612912816135a1565b82525050565b600061292382613491565b61292d81856134a7565b935061293d818560208601613612565b612946816137ad565b840191505092915050565b600061295c8261349c565b61296681856134b8565b9350612976818560208601613612565b61297f816137ad565b840191505092915050565b60006129958261349c565b61299f81856134c9565b93506129af818560208601613612565b80840191505092915050565b60006129c8602b836134b8565b91507f455243373231456e756d657261626c653a206f776e657220696e646578206f7560008301527f74206f6620626f756e64730000000000000000000000000000000000000000006020830152604082019050919050565b6000612a2e6032836134b8565b91507f4552433732313a207472616e7366657220746f206e6f6e20455243373231526560008301527f63656976657220696d706c656d656e74657200000000000000000000000000006020830152604082019050919050565b6000612a94601c836134b8565b91507f4552433732313a20746f6b656e20616c7265616479206d696e746564000000006000830152602082019050919050565b6000612ad46024836134b8565b91507f4552433732313a207472616e7366657220746f20746865207a65726f2061646460008301527f72657373000000000000000000000000000000000000000000000000000000006020830152604082019050919050565b6000612b3a6019836134b8565b91507f4552433732313a20617070726f766520746f2063616c6c6572000000000000006000830152602082019050919050565b6000612b7a602c836134b8565b91507f4552433732313a206f70657261746f7220717565727920666f72206e6f6e657860008301527f697374656e7420746f6b656e00000000000000000000000000000000000000006020830152604082019050919050565b6000612be06038836134b8565b91507f4552433732313a20617070726f76652063616c6c6572206973206e6f74206f7760008301527f6e6572206e6f7220617070726f76656420666f7220616c6c00000000000000006020830152604082019050919050565b6000612c46602a836134b8565b91507f4552433732313a2062616c616e636520717565727920666f7220746865207a6560008301527f726f2061646472657373000000000000000000000000000000000000000000006020830152604082019050919050565b6000612cac6029836134b8565b91507f4552433732313a206f776e657220717565727920666f72206e6f6e657869737460008301527f656e7420746f6b656e00000000000000000000000000000000000000000000006020830152604082019050919050565b6000612d12602e836134b8565b91507f45524337323155524953746f726167653a2055524920736574206f66206e6f6e60008301527f6578697374656e7420746f6b656e0000000000000000000000000000000000006020830152604082019050919050565b6000612d786020836134b8565b91507f4552433732313a206d696e7420746f20746865207a65726f20616464726573736000830152602082019050919050565b6000612db86031836134b8565b91507f45524337323155524953746f726167653a2055524920717565727920666f722060008301527f6e6f6e6578697374656e7420746f6b656e0000000000000000000000000000006020830152604082019050919050565b6000612e1e602c836134b8565b91507f4552433732313a20617070726f76656420717565727920666f72206e6f6e657860008301527f697374656e7420746f6b656e00000000000000000000000000000000000000006020830152604082019050919050565b6000612e846029836134b8565b91507f4552433732313a207472616e73666572206f6620746f6b656e2074686174206960008301527f73206e6f74206f776e00000000000000000000000000000000000000000000006020830152604082019050919050565b6000612eea602f836134b8565b91507f4552433732314d657461646174613a2055524920717565727920666f72206e6f60008301527f6e6578697374656e7420746f6b656e00000000000000000000000000000000006020830152604082019050919050565b6000612f506021836134b8565b91507f4552433732313a20617070726f76616c20746f2063757272656e74206f776e6560008301527f72000000000000000000000000000000000000000000000000000000000000006020830152604082019050919050565b6000612fb66031836134b8565b91507f4552433732313a207472616e736665722063616c6c6572206973206e6f74206f60008301527f776e6572206e6f7220617070726f7665640000000000000000000000000000006020830152604082019050919050565b600061301c602c836134b8565b91507f455243373231456e756d657261626c653a20676c6f62616c20696e646578206f60008301527f7574206f6620626f756e647300000000000000000000000000000000000000006020830152604082019050919050565b60408201600082015161308b60008501826128eb565b50602082015161309e60208501826130a4565b50505050565b6130ad816135f9565b82525050565b6130bc816135f9565b82525050565b60006130ce828561298a565b91506130da828461298a565b91508190509392505050565b60006020820190506130fb60008301846128fa565b92915050565b600060808201905061311660008301876128fa565b61312360208301866128fa565b61313060408301856130b3565b81810360608301526131428184612918565b905095945050505050565b60006020820190506131626000830184612909565b92915050565b600060208201905081810360008301526131828184612951565b905092915050565b600060208201905081810360008301526131a3816129bb565b9050919050565b600060208201905081810360008301526131c381612a21565b9050919050565b600060208201905081810360008301526131e381612a87565b9050919050565b6000602082019050818103600083015261320381612ac7565b9050919050565b6000602082019050818103600083015261322381612b2d565b9050919050565b6000602082019050818103600083015261324381612b6d565b9050919050565b6000602082019050818103600083015261326381612bd3565b9050919050565b6000602082019050818103600083015261328381612c39565b9050919050565b600060208201905081810360008301526132a381612c9f565b9050919050565b600060208201905081810360008301526132c381612d05565b9050919050565b600060208201905081810360008301526132e381612d6b565b9050919050565b6000602082019050818103600083015261330381612dab565b9050919050565b6000602082019050818103600083015261332381612e11565b9050919050565b6000602082019050818103600083015261334381612e77565b9050919050565b6000602082019050818103600083015261336381612edd565b9050919050565b6000602082019050818103600083015261338381612f43565b9050919050565b600060208201905081810360008301526133a381612fa9565b9050919050565b600060208201905081810360008301526133c38161300f565b9050919050565b60006040820190506133df6000830184613075565b92915050565b60006020820190506133fa60008301846130b3565b92915050565b6000604051905081810181811067ffffffffffffffff821117156134275761342661377e565b5b8060405250919050565b600067ffffffffffffffff82111561344c5761344b61377e565b5b601f19601f8301169050602081019050919050565b600067ffffffffffffffff82111561347c5761347b61377e565b5b601f19601f8301169050602081019050919050565b600081519050919050565b600081519050919050565b600082825260208201905092915050565b600082825260208201905092915050565b600081905092915050565b60006134df826135f9565b91506134ea836135f9565b9250827fffffffffffffffffffffffffffffffffffffffffffffffffffffffffffffffff0382111561351f5761351e6136f1565b5b828201905092915050565b6000613535826135f9565b9150613540836135f9565b9250826135505761354f613720565b5b828204905092915050565b6000613566826135f9565b9150613571836135f9565b925082821015613584576135836136f1565b5b828203905092915050565b600061359a826135d9565b9050919050565b60008115159050919050565b60007fffffffff0000000000000000000000000000000000000000000000000000000082169050919050565b600073ffffffffffffffffffffffffffffffffffffffff82169050919050565b6000819050919050565b82818337600083830152505050565b60005b83811015613630578082015181840152602081019050613615565b8381111561363f576000848401525b50505050565b6000600282049050600182168061365d57607f821691505b602082108114156136715761367061374f565b5b50919050565b6000613682826135f9565b91507fffffffffffffffffffffffffffffffffffffffffffffffffffffffffffffffff8214156136b5576136b46136f1565b5b600182019050919050565b60006136cb826135f9565b91506136d6836135f9565b9250826136e6576136e5613720565b5b828206905092915050565b7f4e487b7100000000000000000000000000000000000000000000000000000000600052601160045260246000fd5b7f4e487b7100000000000000000000000000000000000000000000000000000000600052601260045260246000fd5b7f4e487b7100000000000000000000000000000000000000000000000000000000600052602260045260246000fd5b7f4e487b7100000000000000000000000000000000000000000000000000000000600052604160045260246000fd5b6000601f19601f8301169050919050565b6137c78161358f565b81146137d257600080fd5b50565b6137de816135a1565b81146137e957600080fd5b50565b6137f5816135ad565b811461380057600080fd5b50565b61380c816135f9565b811461381757600080fd5b5056fea2646970667358221220583ad67378a986a7c196b53992a9d576fe811810c5f8bb1f058d91ec98a0846764736f6c63430008000033",
  "immutableReferences": {},
  "source": "// SPDX-License-Identifier: MIT\npragma solidity ^0.8.0;\n\nimport \"@openzeppelin/contracts/utils/math/SafeMath.sol\";\nimport \"@openzeppelin/contracts/token/ERC721/extensions/ERC721Enumerable.sol\";\nimport \"@openzeppelin/contracts/token/ERC721/extensions/ERC721URIStorage.sol\";\n\nimport \"./IAdvertisementSurface.sol\";\nimport \"./AdvertisementSurfacePayments.sol\";\n\n/// @author Marcin Gorzynski\n/// @title The Advertisement Surface NFT\n/// @notice The ERC721 tokenized advertisement surface\ncontract AdvertisementSurface is IAdvertisementSurface, AdvertisementSurfacePayments, ERC721URIStorage, ERC721Enumerable {\n\n    using SafeMath for uint256;\n\n    /// @notice The contract constructor\n    constructor() ERC721(\"Advertisement Surface\", \"ADS\") {}\n\n    ///\n    /// @dev See {IERC165-supportsInterface}.\n    ///\n    function supportsInterface(\n        bytes4 interfaceId\n    ) public view virtual override(ERC721, IERC165, ERC721Enumerable) returns (bool) {\n        return ERC721Enumerable.supportsInterface(interfaceId) ||\n        interfaceId == type(IAdvertisementSurface).interfaceId ||\n        interfaceId == type(IAdvertisementSurfacePayments).interfaceId;\n    }\n\n    /// @notice The function that tokenize the advertisement surface. Once activated\n    /// advertisement time slots can be auctioned to clients.\n    /// @param _tokenURI The advertisement surface token id\n    /// @param _paymentInfo The advertisement surface payment structure\n    function registerAdvertisementSurface(string memory _tokenURI, PaymentInfo memory _paymentInfo) external override {\n        require(_paymentInfo.erc20 != address(0));\n        require(_paymentInfo.minBid != 0);\n\n        uint256 tokenId = _mint();\n        _setTokenURI(tokenId, _tokenURI);\n        _setPaymentInfo(tokenId, _paymentInfo);\n    }\n\n    /// @notice The function that checks is given tokenId exists\n    /// @param _tokenId The id of the advertisement surface\n    /// @return If token id exists\n    function advertisementSurfaceExists(uint256 _tokenId) external view override returns (bool) {\n        return _exists(_tokenId);\n    }\n\n    /// @notice It gets PaymentInfo by the token id\n    /// @param _tokenId The id of the token for which the info is returned\n    /// @return The payment info structure\n    function getPaymentInfo(uint256 _tokenId) public view override returns (PaymentInfo memory) {\n        require(_exists(_tokenId));\n        return _getPaymentInfo(_tokenId);\n    }\n\n    /// @notice It sets PaymentInfo by the token id\n    /// @param _tokenId The id of the token for which the info is set\n    /// @param _paymentInfo The paymentInfo to update\n    function setPaymentInfo(uint256 _tokenId, PaymentInfo memory _paymentInfo) external override {\n        require(_exists(_tokenId));\n        require(msg.sender == ownerOf(_tokenId));\n        _setPaymentInfo(_tokenId, _paymentInfo);\n    }\n\n    function _mint() private returns (uint256) {\n        uint256 tokenId = totalSupply().add(1);\n        _safeMint(msg.sender, tokenId);\n        return tokenId;\n    }\n\n    function tokenURI(\n        uint256 tokenId\n    ) public view virtual override(ERC721, IERC721Metadata, ERC721URIStorage) returns (string memory) {\n        return ERC721URIStorage.tokenURI(tokenId);\n    }\n\n    function _baseURI() internal view override returns (string memory) {\n        return \"ipfs://\";\n    }\n\n    function _beforeTokenTransfer(\n        address from,\n        address to,\n        uint256 tokenId\n    ) internal virtual override(ERC721, ERC721Enumerable) {\n        ERC721Enumerable._beforeTokenTransfer(from, to, tokenId);\n    }\n\n    function _burn(uint256 tokenId) internal virtual override(ERC721, ERC721URIStorage) {\n        ERC721URIStorage._burn(tokenId);\n    }\n\n}",
  "sourcePath": "/Users/marcin/Prywatne/dAdvrtMarket/contracts/AdvertisementMarket/AdvertisementSurface/AdvertisementSurface.sol",
  "compiler": {
    "name": "solc",
    "version": "0.8.0+commit.c7dfd78e.Emscripten.clang"
  },
  "schemaVersion": "3.4.3",
  "updatedAt": "2021-11-20T06:55:34.524Z",
  "networkType": "ethereum",
  "devdoc": {
    "author": "Marcin Gorzynski",
    "kind": "dev",
    "methods": {
      "advertisementSurfaceExists(uint256)": {
        "params": {
          "_tokenId": "The id of the advertisement surface"
        },
        "returns": {
          "_0": "If token id exists"
        }
      },
      "approve(address,uint256)": {
        "details": "See {IERC721-approve}."
      },
      "balanceOf(address)": {
        "details": "See {IERC721-balanceOf}."
      },
      "getApproved(uint256)": {
        "details": "See {IERC721-getApproved}."
      },
      "getPaymentInfo(uint256)": {
        "params": {
          "_tokenId": "The id of the token for which the info is returned"
        },
        "returns": {
          "_0": "The payment info structure"
        }
      },
      "isApprovedForAll(address,address)": {
        "details": "See {IERC721-isApprovedForAll}."
      },
      "name()": {
        "details": "See {IERC721Metadata-name}."
      },
      "ownerOf(uint256)": {
        "details": "See {IERC721-ownerOf}."
      },
      "registerAdvertisementSurface(string,(address,uint256))": {
        "params": {
          "_paymentInfo": "The advertisement surface payment structure",
          "_tokenURI": "The advertisement surface token id"
        }
      },
      "safeTransferFrom(address,address,uint256)": {
        "details": "See {IERC721-safeTransferFrom}."
      },
      "safeTransferFrom(address,address,uint256,bytes)": {
        "details": "See {IERC721-safeTransferFrom}."
      },
      "setApprovalForAll(address,bool)": {
        "details": "See {IERC721-setApprovalForAll}."
      },
      "setPaymentInfo(uint256,(address,uint256))": {
        "params": {
          "_paymentInfo": "The paymentInfo to update",
          "_tokenId": "The id of the token for which the info is set"
        }
      },
      "supportsInterface(bytes4)": {
        "details": "See {IERC165-supportsInterface}."
      },
      "symbol()": {
        "details": "See {IERC721Metadata-symbol}."
      },
      "tokenByIndex(uint256)": {
        "details": "See {IERC721Enumerable-tokenByIndex}."
      },
      "tokenOfOwnerByIndex(address,uint256)": {
        "details": "See {IERC721Enumerable-tokenOfOwnerByIndex}."
      },
      "totalSupply()": {
        "details": "See {IERC721Enumerable-totalSupply}."
      },
      "transferFrom(address,address,uint256)": {
        "details": "See {IERC721-transferFrom}."
      }
    },
    "title": "The Advertisement Surface NFT",
    "version": 1
  },
  "userdoc": {
    "kind": "user",
    "methods": {
      "advertisementSurfaceExists(uint256)": {
        "notice": "The function that checks is given tokenId exists"
      },
      "constructor": {
        "notice": "The contract constructor"
      },
      "getPaymentInfo(uint256)": {
        "notice": "It gets PaymentInfo by the token id"
      },
      "registerAdvertisementSurface(string,(address,uint256))": {
        "notice": "The function that tokenize the advertisement surface. Once activated advertisement time slots can be auctioned to clients."
      },
      "setPaymentInfo(uint256,(address,uint256))": {
        "notice": "It sets PaymentInfo by the token id"
      }
    },
    "notice": "The ERC721 tokenized advertisement surface",
    "version": 1
  }
}