{
  "contractName": "MockNFT",
  "abi": [
    {
      "inputs": [],
      "stateMutability": "nonpayable",
      "type": "constructor"
    },
    {
      "anonymous": false,
      "inputs": [
        {
          "indexed": true,
          "internalType": "address",
          "name": "owner",
          "type": "address"
        },
        {
          "indexed": true,
          "internalType": "address",
          "name": "approved",
          "type": "address"
        },
        {
          "indexed": true,
          "internalType": "uint256",
          "name": "tokenId",
          "type": "uint256"
        }
      ],
      "name": "Approval",
      "type": "event"
    },
    {
      "anonymous": false,
      "inputs": [
        {
          "indexed": true,
          "internalType": "address",
          "name": "owner",
          "type": "address"
        },
        {
          "indexed": true,
          "internalType": "address",
          "name": "operator",
          "type": "address"
        },
        {
          "indexed": false,
          "internalType": "bool",
          "name": "approved",
          "type": "bool"
        }
      ],
      "name": "ApprovalForAll",
      "type": "event"
    },
    {
      "anonymous": false,
      "inputs": [
        {
          "indexed": true,
          "internalType": "address",
          "name": "from",
          "type": "address"
        },
        {
          "indexed": true,
          "internalType": "address",
          "name": "to",
          "type": "address"
        },
        {
          "indexed": true,
          "internalType": "uint256",
          "name": "tokenId",
          "type": "uint256"
        }
      ],
      "name": "Transfer",
      "type": "event"
    },
    {
      "inputs": [
        {
          "internalType": "address",
          "name": "to",
          "type": "address"
        },
        {
          "internalType": "uint256",
          "name": "tokenId",
          "type": "uint256"
        }
      ],
      "name": "approve",
      "outputs": [],
      "stateMutability": "nonpayable",
      "type": "function"
    },
    {
      "inputs": [
        {
          "internalType": "address",
          "name": "owner",
          "type": "address"
        }
      ],
      "name": "balanceOf",
      "outputs": [
        {
          "internalType": "uint256",
          "name": "",
          "type": "uint256"
        }
      ],
      "stateMutability": "view",
      "type": "function",
      "constant": true
    },
    {
      "inputs": [
        {
          "internalType": "uint256",
          "name": "tokenId",
          "type": "uint256"
        }
      ],
      "name": "getApproved",
      "outputs": [
        {
          "internalType": "address",
          "name": "",
          "type": "address"
        }
      ],
      "stateMutability": "view",
      "type": "function",
      "constant": true
    },
    {
      "inputs": [
        {
          "internalType": "address",
          "name": "owner",
          "type": "address"
        },
        {
          "internalType": "address",
          "name": "operator",
          "type": "address"
        }
      ],
      "name": "isApprovedForAll",
      "outputs": [
        {
          "internalType": "bool",
          "name": "",
          "type": "bool"
        }
      ],
      "stateMutability": "view",
      "type": "function",
      "constant": true
    },
    {
      "inputs": [],
      "name": "name",
      "outputs": [
        {
          "internalType": "string",
          "name": "",
          "type": "string"
        }
      ],
      "stateMutability": "view",
      "type": "function",
      "constant": true
    },
    {
      "inputs": [
        {
          "internalType": "uint256",
          "name": "tokenId",
          "type": "uint256"
        }
      ],
      "name": "ownerOf",
      "outputs": [
        {
          "internalType": "address",
          "name": "",
          "type": "address"
        }
      ],
      "stateMutability": "view",
      "type": "function",
      "constant": true
    },
    {
      "inputs": [
        {
          "internalType": "address",
          "name": "from",
          "type": "address"
        },
        {
          "internalType": "address",
          "name": "to",
          "type": "address"
        },
        {
          "internalType": "uint256",
          "name": "tokenId",
          "type": "uint256"
        }
      ],
      "name": "safeTransferFrom",
      "outputs": [],
      "stateMutability": "nonpayable",
      "type": "function"
    },
    {
      "inputs": [
        {
          "internalType": "address",
          "name": "from",
          "type": "address"
        },
        {
          "internalType": "address",
          "name": "to",
          "type": "address"
        },
        {
          "internalType": "uint256",
          "name": "tokenId",
          "type": "uint256"
        },
        {
          "internalType": "bytes",
          "name": "_data",
          "type": "bytes"
        }
      ],
      "name": "safeTransferFrom",
      "outputs": [],
      "stateMutability": "nonpayable",
      "type": "function"
    },
    {
      "inputs": [
        {
          "internalType": "address",
          "name": "operator",
          "type": "address"
        },
        {
          "internalType": "bool",
          "name": "approved",
          "type": "bool"
        }
      ],
      "name": "setApprovalForAll",
      "outputs": [],
      "stateMutability": "nonpayable",
      "type": "function"
    },
    {
      "inputs": [],
      "name": "symbol",
      "outputs": [
        {
          "internalType": "string",
          "name": "",
          "type": "string"
        }
      ],
      "stateMutability": "view",
      "type": "function",
      "constant": true
    },
    {
      "inputs": [
        {
          "internalType": "uint256",
          "name": "index",
          "type": "uint256"
        }
      ],
      "name": "tokenByIndex",
      "outputs": [
        {
          "internalType": "uint256",
          "name": "",
          "type": "uint256"
        }
      ],
      "stateMutability": "view",
      "type": "function",
      "constant": true
    },
    {
      "inputs": [
        {
          "internalType": "address",
          "name": "owner",
          "type": "address"
        },
        {
          "internalType": "uint256",
          "name": "index",
          "type": "uint256"
        }
      ],
      "name": "tokenOfOwnerByIndex",
      "outputs": [
        {
          "internalType": "uint256",
          "name": "",
          "type": "uint256"
        }
      ],
      "stateMutability": "view",
      "type": "function",
      "constant": true
    },
    {
      "inputs": [],
      "name": "totalSupply",
      "outputs": [
        {
          "internalType": "uint256",
          "name": "",
          "type": "uint256"
        }
      ],
      "stateMutability": "view",
      "type": "function",
      "constant": true
    },
    {
      "inputs": [
        {
          "internalType": "address",
          "name": "from",
          "type": "address"
        },
        {
          "internalType": "address",
          "name": "to",
          "type": "address"
        },
        {
          "internalType": "uint256",
          "name": "tokenId",
          "type": "uint256"
        }
      ],
      "name": "transferFrom",
      "outputs": [],
      "stateMutability": "nonpayable",
      "type": "function"
    },
    {
      "inputs": [
        {
          "internalType": "bytes4",
          "name": "interfaceId",
          "type": "bytes4"
        }
      ],
      "name": "supportsInterface",
      "outputs": [
        {
          "internalType": "bool",
          "name": "",
          "type": "bool"
        }
      ],
      "stateMutability": "view",
      "type": "function",
      "constant": true
    },
    {
      "inputs": [
        {
          "internalType": "address",
          "name": "_account",
          "type": "address"
        },
        {
          "internalType": "string",
          "name": "_tokenURI",
          "type": "string"
        }
      ],
      "name": "mint",
      "outputs": [],
      "stateMutability": "nonpayable",
      "type": "function"
    },
    {
      "inputs": [
        {
          "internalType": "uint256",
          "name": "tokenId",
          "type": "uint256"
        }
      ],
      "name": "tokenURI",
      "outputs": [
        {
          "internalType": "string",
          "name": "",
          "type": "string"
        }
      ],
      "stateMutability": "view",
      "type": "function",
      "constant": true
    }
  ],
  "bytecode": "0x60806040523480156200001157600080fd5b506040518060400160405280601181526020017f4164766572746973656d656e74204e46540000000000000000000000000000008152506040518060400160405280600381526020017f4144560000000000000000000000000000000000000000000000000000000000815250816000908051906020019062000096929190620000b8565b508060019080519060200190620000af929190620000b8565b505050620001cd565b828054620000c69062000168565b90600052602060002090601f016020900481019282620000ea576000855562000136565b82601f106200010557805160ff191683800117855562000136565b8280016001018555821562000136579182015b828111156200013557825182559160200191906001019062000118565b5b50905062000145919062000149565b5090565b5b80821115620001645760008160009055506001016200014a565b5090565b600060028204905060018216806200018157607f821691505b602082108114156200019857620001976200019e565b5b50919050565b7f4e487b7100000000000000000000000000000000000000000000000000000000600052602260045260246000fd5b61333080620001dd6000396000f3fe608060405234801561001057600080fd5b506004361061010b5760003560e01c80634f6ccce7116100a2578063a22cb46511610071578063a22cb465146102de578063b88d4fde146102fa578063c87b56dd14610316578063d0def52114610346578063e985e9c5146103625761010b565b80634f6ccce7146102305780636352211e1461026057806370a082311461029057806395d89b41146102c05761010b565b806318160ddd116100de57806318160ddd146101aa57806323b872dd146101c85780632f745c59146101e457806342842e0e146102145761010b565b806301ffc9a71461011057806306fdde0314610140578063081812fc1461015e578063095ea7b31461018e575b600080fd5b61012a600480360381019061012591906123b8565b610392565b6040516101379190612c48565b60405180910390f35b6101486103a4565b6040516101559190612c63565b60405180910390f35b6101786004803603810190610173919061240a565b610436565b6040516101859190612be1565b60405180910390f35b6101a860048036038101906101a3919061237c565b6104bb565b005b6101b26105d3565b6040516101bf9190612ec5565b60405180910390f35b6101e260048036038101906101dd9190612222565b6105e0565b005b6101fe60048036038101906101f9919061237c565b610640565b60405161020b9190612ec5565b60405180910390f35b61022e60048036038101906102299190612222565b6106e5565b005b61024a6004803603810190610245919061240a565b610705565b6040516102579190612ec5565b60405180910390f35b61027a6004803603810190610275919061240a565b61079c565b6040516102879190612be1565b60405180910390f35b6102aa60048036038101906102a591906121bd565b61084e565b6040516102b79190612ec5565b60405180910390f35b6102c8610906565b6040516102d59190612c63565b60405180910390f35b6102f860048036038101906102f391906122ec565b610998565b005b610314600480360381019061030f9190612271565b610b19565b005b610330600480360381019061032b919061240a565b610b7b565b60405161033d9190612c63565b60405180910390f35b610360600480360381019061035b9190612328565b610b8d565b005b61037c600480360381019061037791906121e6565b610bc5565b6040516103899190612c48565b60405180910390f35b600061039d82610c59565b9050919050565b6060600080546103b390613125565b80601f01602080910402602001604051908101604052809291908181526020018280546103df90613125565b801561042c5780601f106104015761010080835404028352916020019161042c565b820191906000526020600020905b81548152906001019060200180831161040f57829003601f168201915b5050505050905090565b600061044182610cd3565b610480576040517f08c379a000000000000000000000000000000000000000000000000000000000815260040161047790612e05565b60405180910390fd5b6004600083815260200190815260200160002060009054906101000a900473ffffffffffffffffffffffffffffffffffffffff169050919050565b60006104c68261079c565b90508073ffffffffffffffffffffffffffffffffffffffff168373ffffffffffffffffffffffffffffffffffffffff161415610537576040517f08c379a000000000000000000000000000000000000000000000000000000000815260040161052e90612e65565b60405180910390fd5b8073ffffffffffffffffffffffffffffffffffffffff16610556610d3f565b73ffffffffffffffffffffffffffffffffffffffff16148061058557506105848161057f610d3f565b610bc5565b5b6105c4576040517f08c379a00000000000000000000000000000000000000000000000000000000081526004016105bb90612d45565b60405180910390fd5b6105ce8383610d47565b505050565b6000600980549050905090565b6105f16105eb610d3f565b82610e00565b610630576040517f08c379a000000000000000000000000000000000000000000000000000000000815260040161062790612e85565b60405180910390fd5b61063b838383610ede565b505050565b600061064b8361084e565b821061068c576040517f08c379a000000000000000000000000000000000000000000000000000000000815260040161068390612c85565b60405180910390fd5b600760008473ffffffffffffffffffffffffffffffffffffffff1673ffffffffffffffffffffffffffffffffffffffff168152602001908152602001600020600083815260200190815260200160002054905092915050565b61070083838360405180602001604052806000815250610b19565b505050565b600061070f6105d3565b8210610750576040517f08c379a000000000000000000000000000000000000000000000000000000000815260040161074790612ea5565b60405180910390fd5b6009828154811061078a577f4e487b7100000000000000000000000000000000000000000000000000000000600052603260045260246000fd5b90600052602060002001549050919050565b6000806002600084815260200190815260200160002060009054906101000a900473ffffffffffffffffffffffffffffffffffffffff169050600073ffffffffffffffffffffffffffffffffffffffff168173ffffffffffffffffffffffffffffffffffffffff161415610845576040517f08c379a000000000000000000000000000000000000000000000000000000000815260040161083c90612d85565b60405180910390fd5b80915050919050565b60008073ffffffffffffffffffffffffffffffffffffffff168273ffffffffffffffffffffffffffffffffffffffff1614156108bf576040517f08c379a00000000000000000000000000000000000000000000000000000000081526004016108b690612d65565b60405180910390fd5b600360008373ffffffffffffffffffffffffffffffffffffffff1673ffffffffffffffffffffffffffffffffffffffff168152602001908152602001600020549050919050565b60606001805461091590613125565b80601f016020809104026020016040519081016040528092919081815260200182805461094190613125565b801561098e5780601f106109635761010080835404028352916020019161098e565b820191906000526020600020905b81548152906001019060200180831161097157829003601f168201915b5050505050905090565b6109a0610d3f565b73ffffffffffffffffffffffffffffffffffffffff168273ffffffffffffffffffffffffffffffffffffffff161415610a0e576040517f08c379a0000000000000000000000000000000000000000000000000000000008152600401610a0590612d05565b60405180910390fd5b8060056000610a1b610d3f565b73ffffffffffffffffffffffffffffffffffffffff1673ffffffffffffffffffffffffffffffffffffffff16815260200190815260200160002060008473ffffffffffffffffffffffffffffffffffffffff1673ffffffffffffffffffffffffffffffffffffffff16815260200190815260200160002060006101000a81548160ff0219169083151502179055508173ffffffffffffffffffffffffffffffffffffffff16610ac8610d3f565b73ffffffffffffffffffffffffffffffffffffffff167f17307eab39ab6107e8899845ad3d59bd9653f200f220920489ca2b5937696c3183604051610b0d9190612c48565b60405180910390a35050565b610b2a610b24610d3f565b83610e00565b610b69576040517f08c379a0000000000000000000000000000000000000000000000000000000008152600401610b6090612e85565b60405180910390fd5b610b758484848461113a565b50505050565b6060610b8682611196565b9050919050565b6000610baa6001610b9c6105d3565b6112e890919063ffffffff16565b9050610bb683826112fe565b610bc0818361131c565b505050565b6000600560008473ffffffffffffffffffffffffffffffffffffffff1673ffffffffffffffffffffffffffffffffffffffff16815260200190815260200160002060008373ffffffffffffffffffffffffffffffffffffffff1673ffffffffffffffffffffffffffffffffffffffff16815260200190815260200160002060009054906101000a900460ff16905092915050565b60007f780e9d63000000000000000000000000000000000000000000000000000000007bffffffffffffffffffffffffffffffffffffffffffffffffffffffff1916827bffffffffffffffffffffffffffffffffffffffffffffffffffffffff19161480610ccc5750610ccb82611390565b5b9050919050565b60008073ffffffffffffffffffffffffffffffffffffffff166002600084815260200190815260200160002060009054906101000a900473ffffffffffffffffffffffffffffffffffffffff1673ffffffffffffffffffffffffffffffffffffffff1614159050919050565b600033905090565b816004600083815260200190815260200160002060006101000a81548173ffffffffffffffffffffffffffffffffffffffff021916908373ffffffffffffffffffffffffffffffffffffffff160217905550808273ffffffffffffffffffffffffffffffffffffffff16610dba8361079c565b73ffffffffffffffffffffffffffffffffffffffff167f8c5be1e5ebec7d5bd14f71427d1e84f3dd0314c0f7b2291e5b200ac8c7c3b92560405160405180910390a45050565b6000610e0b82610cd3565b610e4a576040517f08c379a0000000000000000000000000000000000000000000000000000000008152600401610e4190612d25565b60405180910390fd5b6000610e558361079c565b90508073ffffffffffffffffffffffffffffffffffffffff168473ffffffffffffffffffffffffffffffffffffffff161480610ec457508373ffffffffffffffffffffffffffffffffffffffff16610eac84610436565b73ffffffffffffffffffffffffffffffffffffffff16145b80610ed55750610ed48185610bc5565b5b91505092915050565b8273ffffffffffffffffffffffffffffffffffffffff16610efe8261079c565b73ffffffffffffffffffffffffffffffffffffffff1614610f54576040517f08c379a0000000000000000000000000000000000000000000000000000000008152600401610f4b90612e25565b60405180910390fd5b600073ffffffffffffffffffffffffffffffffffffffff168273ffffffffffffffffffffffffffffffffffffffff161415610fc4576040517f08c379a0000000000000000000000000000000000000000000000000000000008152600401610fbb90612ce5565b60405180910390fd5b610fcf838383611472565b610fda600082610d47565b6001600360008573ffffffffffffffffffffffffffffffffffffffff1673ffffffffffffffffffffffffffffffffffffffff168152602001908152602001600020600082825461102a919061303b565b925050819055506001600360008473ffffffffffffffffffffffffffffffffffffffff1673ffffffffffffffffffffffffffffffffffffffff16815260200190815260200160002060008282546110819190612fb4565b92505081905550816002600083815260200190815260200160002060006101000a81548173ffffffffffffffffffffffffffffffffffffffff021916908373ffffffffffffffffffffffffffffffffffffffff160217905550808273ffffffffffffffffffffffffffffffffffffffff168473ffffffffffffffffffffffffffffffffffffffff167fddf252ad1be2c89b69c2b068fc378daa952ba7f163c4a11628f55a4df523b3ef60405160405180910390a4505050565b611145848484610ede565b61115184848484611482565b611190576040517f08c379a000000000000000000000000000000000000000000000000000000000815260040161118790612ca5565b60405180910390fd5b50505050565b60606111a182610cd3565b6111e0576040517f08c379a00000000000000000000000000000000000000000000000000000000081526004016111d790612de5565b60405180910390fd5b600060066000848152602001908152602001600020805461120090613125565b80601f016020809104026020016040519081016040528092919081815260200182805461122c90613125565b80156112795780601f1061124e57610100808354040283529160200191611279565b820191906000526020600020905b81548152906001019060200180831161125c57829003601f168201915b50505050509050600061128a611619565b90506000815114156112a05781925050506112e3565b6000825111156112d55780826040516020016112bd929190612bbd565b604051602081830303815290604052925050506112e3565b6112de84611656565b925050505b919050565b600081836112f69190612fb4565b905092915050565b6113188282604051806020016040528060008152506116fd565b5050565b61132582610cd3565b611364576040517f08c379a000000000000000000000000000000000000000000000000000000000815260040161135b90612da5565b60405180910390fd5b8060066000848152602001908152602001600020908051906020019061138b929190611fe1565b505050565b60007f80ac58cd000000000000000000000000000000000000000000000000000000007bffffffffffffffffffffffffffffffffffffffffffffffffffffffff1916827bffffffffffffffffffffffffffffffffffffffffffffffffffffffff1916148061145b57507f5b5e139f000000000000000000000000000000000000000000000000000000007bffffffffffffffffffffffffffffffffffffffffffffffffffffffff1916827bffffffffffffffffffffffffffffffffffffffffffffffffffffffff1916145b8061146b575061146a82611758565b5b9050919050565b61147d8383836117c2565b505050565b60006114a38473ffffffffffffffffffffffffffffffffffffffff166118d6565b1561160c578373ffffffffffffffffffffffffffffffffffffffff1663150b7a026114cc610d3f565b8786866040518563ffffffff1660e01b81526004016114ee9493929190612bfc565b602060405180830381600087803b15801561150857600080fd5b505af192505050801561153957506040513d601f19601f8201168201806040525081019061153691906123e1565b60015b6115bc573d8060008114611569576040519150601f19603f3d011682016040523d82523d6000602084013e61156e565b606091505b506000815114156115b4576040517f08c379a00000000000000000000000000000000000000000000000000000000081526004016115ab90612ca5565b60405180910390fd5b805181602001fd5b63150b7a0260e01b7bffffffffffffffffffffffffffffffffffffffffffffffffffffffff1916817bffffffffffffffffffffffffffffffffffffffffffffffffffffffff191614915050611611565b600190505b949350505050565b60606040518060400160405280600781526020017f697066733a2f2f00000000000000000000000000000000000000000000000000815250905090565b606061166182610cd3565b6116a0576040517f08c379a000000000000000000000000000000000000000000000000000000000815260040161169790612e45565b60405180910390fd5b60006116aa611619565b905060008151116116ca57604051806020016040528060008152506116f5565b806116d4846118e9565b6040516020016116e5929190612bbd565b6040516020818303038152906040525b915050919050565b6117078383611a96565b6117146000848484611482565b611753576040517f08c379a000000000000000000000000000000000000000000000000000000000815260040161174a90612ca5565b60405180910390fd5b505050565b60007f01ffc9a7000000000000000000000000000000000000000000000000000000007bffffffffffffffffffffffffffffffffffffffffffffffffffffffff1916827bffffffffffffffffffffffffffffffffffffffffffffffffffffffff1916149050919050565b6117cd838383611c64565b600073ffffffffffffffffffffffffffffffffffffffff168373ffffffffffffffffffffffffffffffffffffffff1614156118105761180b81611c69565b61184f565b8173ffffffffffffffffffffffffffffffffffffffff168373ffffffffffffffffffffffffffffffffffffffff161461184e5761184d8382611cb2565b5b5b600073ffffffffffffffffffffffffffffffffffffffff168273ffffffffffffffffffffffffffffffffffffffff1614156118925761188d81611e1f565b6118d1565b8273ffffffffffffffffffffffffffffffffffffffff168273ffffffffffffffffffffffffffffffffffffffff16146118d0576118cf8282611f62565b5b5b505050565b600080823b905060008111915050919050565b60606000821415611931576040518060400160405280600181526020017f30000000000000000000000000000000000000000000000000000000000000008152509050611a91565b600082905060005b6000821461196357808061194c90613157565b915050600a8261195c919061300a565b9150611939565b60008167ffffffffffffffff8111156119a5577f4e487b7100000000000000000000000000000000000000000000000000000000600052604160045260246000fd5b6040519080825280601f01601f1916602001820160405280156119d75781602001600182028036833780820191505090505b5090505b60008514611a8a576001826119f0919061303b565b9150600a856119ff91906131a0565b6030611a0b9190612fb4565b60f81b818381518110611a47577f4e487b7100000000000000000000000000000000000000000000000000000000600052603260045260246000fd5b60200101907effffffffffffffffffffffffffffffffffffffffffffffffffffffffffffff1916908160001a905350600a85611a83919061300a565b94506119db565b8093505050505b919050565b600073ffffffffffffffffffffffffffffffffffffffff168273ffffffffffffffffffffffffffffffffffffffff161415611b06576040517f08c379a0000000000000000000000000000000000000000000000000000000008152600401611afd90612dc5565b60405180910390fd5b611b0f81610cd3565b15611b4f576040517f08c379a0000000000000000000000000000000000000000000000000000000008152600401611b4690612cc5565b60405180910390fd5b611b5b60008383611472565b6001600360008473ffffffffffffffffffffffffffffffffffffffff1673ffffffffffffffffffffffffffffffffffffffff1681526020019081526020016000206000828254611bab9190612fb4565b92505081905550816002600083815260200190815260200160002060006101000a81548173ffffffffffffffffffffffffffffffffffffffff021916908373ffffffffffffffffffffffffffffffffffffffff160217905550808273ffffffffffffffffffffffffffffffffffffffff16600073ffffffffffffffffffffffffffffffffffffffff167fddf252ad1be2c89b69c2b068fc378daa952ba7f163c4a11628f55a4df523b3ef60405160405180910390a45050565b505050565b600980549050600a600083815260200190815260200160002081905550600981908060018154018082558091505060019003906000526020600020016000909190919091505550565b60006001611cbf8461084e565b611cc9919061303b565b9050600060086000848152602001908152602001600020549050818114611dae576000600760008673ffffffffffffffffffffffffffffffffffffffff1673ffffffffffffffffffffffffffffffffffffffff168152602001908152602001600020600084815260200190815260200160002054905080600760008773ffffffffffffffffffffffffffffffffffffffff1673ffffffffffffffffffffffffffffffffffffffff168152602001908152602001600020600084815260200190815260200160002081905550816008600083815260200190815260200160002081905550505b6008600084815260200190815260200160002060009055600760008573ffffffffffffffffffffffffffffffffffffffff1673ffffffffffffffffffffffffffffffffffffffff16815260200190815260200160002060008381526020019081526020016000206000905550505050565b60006001600980549050611e33919061303b565b90506000600a6000848152602001908152602001600020549050600060098381548110611e89577f4e487b7100000000000000000000000000000000000000000000000000000000600052603260045260246000fd5b906000526020600020015490508060098381548110611ed1577f4e487b7100000000000000000000000000000000000000000000000000000000600052603260045260246000fd5b906000526020600020018190555081600a600083815260200190815260200160002081905550600a6000858152602001908152602001600020600090556009805480611f46577f4e487b7100000000000000000000000000000000000000000000000000000000600052603160045260246000fd5b6001900381819060005260206000200160009055905550505050565b6000611f6d8361084e565b905081600760008573ffffffffffffffffffffffffffffffffffffffff1673ffffffffffffffffffffffffffffffffffffffff168152602001908152602001600020600083815260200190815260200160002081905550806008600084815260200190815260200160002081905550505050565b828054611fed90613125565b90600052602060002090601f01602090048101928261200f5760008555612056565b82601f1061202857805160ff1916838001178555612056565b82800160010185558215612056579182015b8281111561205557825182559160200191906001019061203a565b5b5090506120639190612067565b5090565b5b80821115612080576000816000905550600101612068565b5090565b600061209761209284612f11565b612ee0565b9050828152602081018484840111156120af57600080fd5b6120ba8482856130e3565b509392505050565b60006120d56120d084612f41565b612ee0565b9050828152602081018484840111156120ed57600080fd5b6120f88482856130e3565b509392505050565b60008135905061210f8161329e565b92915050565b600081359050612124816132b5565b92915050565b600081359050612139816132cc565b92915050565b60008151905061214e816132cc565b92915050565b600082601f83011261216557600080fd5b8135612175848260208601612084565b91505092915050565b600082601f83011261218f57600080fd5b813561219f8482602086016120c2565b91505092915050565b6000813590506121b7816132e3565b92915050565b6000602082840312156121cf57600080fd5b60006121dd84828501612100565b91505092915050565b600080604083850312156121f957600080fd5b600061220785828601612100565b925050602061221885828601612100565b9150509250929050565b60008060006060848603121561223757600080fd5b600061224586828701612100565b935050602061225686828701612100565b9250506040612267868287016121a8565b9150509250925092565b6000806000806080858703121561228757600080fd5b600061229587828801612100565b94505060206122a687828801612100565b93505060406122b7878288016121a8565b925050606085013567ffffffffffffffff8111156122d457600080fd5b6122e087828801612154565b91505092959194509250565b600080604083850312156122ff57600080fd5b600061230d85828601612100565b925050602061231e85828601612115565b9150509250929050565b6000806040838503121561233b57600080fd5b600061234985828601612100565b925050602083013567ffffffffffffffff81111561236657600080fd5b6123728582860161217e565b9150509250929050565b6000806040838503121561238f57600080fd5b600061239d85828601612100565b92505060206123ae858286016121a8565b9150509250929050565b6000602082840312156123ca57600080fd5b60006123d88482850161212a565b91505092915050565b6000602082840312156123f357600080fd5b60006124018482850161213f565b91505092915050565b60006020828403121561241c57600080fd5b600061242a848285016121a8565b91505092915050565b61243c8161306f565b82525050565b61244b81613081565b82525050565b600061245c82612f71565b6124668185612f87565b93506124768185602086016130f2565b61247f8161328d565b840191505092915050565b600061249582612f7c565b61249f8185612f98565b93506124af8185602086016130f2565b6124b88161328d565b840191505092915050565b60006124ce82612f7c565b6124d88185612fa9565b93506124e88185602086016130f2565b80840191505092915050565b6000612501602b83612f98565b91507f455243373231456e756d657261626c653a206f776e657220696e646578206f7560008301527f74206f6620626f756e64730000000000000000000000000000000000000000006020830152604082019050919050565b6000612567603283612f98565b91507f4552433732313a207472616e7366657220746f206e6f6e20455243373231526560008301527f63656976657220696d706c656d656e74657200000000000000000000000000006020830152604082019050919050565b60006125cd601c83612f98565b91507f4552433732313a20746f6b656e20616c7265616479206d696e746564000000006000830152602082019050919050565b600061260d602483612f98565b91507f4552433732313a207472616e7366657220746f20746865207a65726f2061646460008301527f72657373000000000000000000000000000000000000000000000000000000006020830152604082019050919050565b6000612673601983612f98565b91507f4552433732313a20617070726f766520746f2063616c6c6572000000000000006000830152602082019050919050565b60006126b3602c83612f98565b91507f4552433732313a206f70657261746f7220717565727920666f72206e6f6e657860008301527f697374656e7420746f6b656e00000000000000000000000000000000000000006020830152604082019050919050565b6000612719603883612f98565b91507f4552433732313a20617070726f76652063616c6c6572206973206e6f74206f7760008301527f6e6572206e6f7220617070726f76656420666f7220616c6c00000000000000006020830152604082019050919050565b600061277f602a83612f98565b91507f4552433732313a2062616c616e636520717565727920666f7220746865207a6560008301527f726f2061646472657373000000000000000000000000000000000000000000006020830152604082019050919050565b60006127e5602983612f98565b91507f4552433732313a206f776e657220717565727920666f72206e6f6e657869737460008301527f656e7420746f6b656e00000000000000000000000000000000000000000000006020830152604082019050919050565b600061284b602e83612f98565b91507f45524337323155524953746f726167653a2055524920736574206f66206e6f6e60008301527f6578697374656e7420746f6b656e0000000000000000000000000000000000006020830152604082019050919050565b60006128b1602083612f98565b91507f4552433732313a206d696e7420746f20746865207a65726f20616464726573736000830152602082019050919050565b60006128f1603183612f98565b91507f45524337323155524953746f726167653a2055524920717565727920666f722060008301527f6e6f6e6578697374656e7420746f6b656e0000000000000000000000000000006020830152604082019050919050565b6000612957602c83612f98565b91507f4552433732313a20617070726f76656420717565727920666f72206e6f6e657860008301527f697374656e7420746f6b656e00000000000000000000000000000000000000006020830152604082019050919050565b60006129bd602983612f98565b91507f4552433732313a207472616e73666572206f6620746f6b656e2074686174206960008301527f73206e6f74206f776e00000000000000000000000000000000000000000000006020830152604082019050919050565b6000612a23602f83612f98565b91507f4552433732314d657461646174613a2055524920717565727920666f72206e6f60008301527f6e6578697374656e7420746f6b656e00000000000000000000000000000000006020830152604082019050919050565b6000612a89602183612f98565b91507f4552433732313a20617070726f76616c20746f2063757272656e74206f776e6560008301527f72000000000000000000000000000000000000000000000000000000000000006020830152604082019050919050565b6000612aef603183612f98565b91507f4552433732313a207472616e736665722063616c6c6572206973206e6f74206f60008301527f776e6572206e6f7220617070726f7665640000000000000000000000000000006020830152604082019050919050565b6000612b55602c83612f98565b91507f455243373231456e756d657261626c653a20676c6f62616c20696e646578206f60008301527f7574206f6620626f756e647300000000000000000000000000000000000000006020830152604082019050919050565b612bb7816130d9565b82525050565b6000612bc982856124c3565b9150612bd582846124c3565b91508190509392505050565b6000602082019050612bf66000830184612433565b92915050565b6000608082019050612c116000830187612433565b612c1e6020830186612433565b612c2b6040830185612bae565b8181036060830152612c3d8184612451565b905095945050505050565b6000602082019050612c5d6000830184612442565b92915050565b60006020820190508181036000830152612c7d818461248a565b905092915050565b60006020820190508181036000830152612c9e816124f4565b9050919050565b60006020820190508181036000830152612cbe8161255a565b9050919050565b60006020820190508181036000830152612cde816125c0565b9050919050565b60006020820190508181036000830152612cfe81612600565b9050919050565b60006020820190508181036000830152612d1e81612666565b9050919050565b60006020820190508181036000830152612d3e816126a6565b9050919050565b60006020820190508181036000830152612d5e8161270c565b9050919050565b60006020820190508181036000830152612d7e81612772565b9050919050565b60006020820190508181036000830152612d9e816127d8565b9050919050565b60006020820190508181036000830152612dbe8161283e565b9050919050565b60006020820190508181036000830152612dde816128a4565b9050919050565b60006020820190508181036000830152612dfe816128e4565b9050919050565b60006020820190508181036000830152612e1e8161294a565b9050919050565b60006020820190508181036000830152612e3e816129b0565b9050919050565b60006020820190508181036000830152612e5e81612a16565b9050919050565b60006020820190508181036000830152612e7e81612a7c565b9050919050565b60006020820190508181036000830152612e9e81612ae2565b9050919050565b60006020820190508181036000830152612ebe81612b48565b9050919050565b6000602082019050612eda6000830184612bae565b92915050565b6000604051905081810181811067ffffffffffffffff82111715612f0757612f0661325e565b5b8060405250919050565b600067ffffffffffffffff821115612f2c57612f2b61325e565b5b601f19601f8301169050602081019050919050565b600067ffffffffffffffff821115612f5c57612f5b61325e565b5b601f19601f8301169050602081019050919050565b600081519050919050565b600081519050919050565b600082825260208201905092915050565b600082825260208201905092915050565b600081905092915050565b6000612fbf826130d9565b9150612fca836130d9565b9250827fffffffffffffffffffffffffffffffffffffffffffffffffffffffffffffffff03821115612fff57612ffe6131d1565b5b828201905092915050565b6000613015826130d9565b9150613020836130d9565b9250826130305761302f613200565b5b828204905092915050565b6000613046826130d9565b9150613051836130d9565b925082821015613064576130636131d1565b5b828203905092915050565b600061307a826130b9565b9050919050565b60008115159050919050565b60007fffffffff0000000000000000000000000000000000000000000000000000000082169050919050565b600073ffffffffffffffffffffffffffffffffffffffff82169050919050565b6000819050919050565b82818337600083830152505050565b60005b838110156131105780820151818401526020810190506130f5565b8381111561311f576000848401525b50505050565b6000600282049050600182168061313d57607f821691505b602082108114156131515761315061322f565b5b50919050565b6000613162826130d9565b91507fffffffffffffffffffffffffffffffffffffffffffffffffffffffffffffffff821415613195576131946131d1565b5b600182019050919050565b60006131ab826130d9565b91506131b6836130d9565b9250826131c6576131c5613200565b5b828206905092915050565b7f4e487b7100000000000000000000000000000000000000000000000000000000600052601160045260246000fd5b7f4e487b7100000000000000000000000000000000000000000000000000000000600052601260045260246000fd5b7f4e487b7100000000000000000000000000000000000000000000000000000000600052602260045260246000fd5b7f4e487b7100000000000000000000000000000000000000000000000000000000600052604160045260246000fd5b6000601f19601f8301169050919050565b6132a78161306f565b81146132b257600080fd5b50565b6132be81613081565b81146132c957600080fd5b50565b6132d58161308d565b81146132e057600080fd5b50565b6132ec816130d9565b81146132f757600080fd5b5056fea26469706673582212207856427e953c79d6eec3f9cd10422a628a4d226a14f285f4c3f70675b653822d64736f6c63430008000033",
  "immutableReferences": {},
  "source": "// SPDX-License-Identifier: MIT\npragma solidity ^0.8.0;\n\nimport \"@openzeppelin/contracts/utils/math/SafeMath.sol\";\n\nimport \"@openzeppelin/contracts/token/ERC721/extensions/ERC721Enumerable.sol\";\nimport \"@openzeppelin/contracts/token/ERC721/extensions/ERC721URIStorage.sol\";\n\ncontract MockNFT is ERC721URIStorage, ERC721Enumerable {\n\n    using SafeMath for uint256;\n\n    constructor() ERC721(\"Advertisement NFT\", \"ADV\") {}\n\n    function supportsInterface(\n        bytes4 interfaceId\n    ) public view virtual override(ERC721, ERC721Enumerable) returns (bool) {\n        return ERC721Enumerable.supportsInterface(interfaceId);\n    }\n\n    function _baseURI() internal view override returns (string memory) {\n        return \"ipfs://\";\n    }\n\n    function mint(address _account, string memory _tokenURI) external {\n        uint256 tokenId = totalSupply().add(1);\n        _safeMint(_account, tokenId);\n        _setTokenURI(tokenId, _tokenURI);\n    }\n\n    function tokenURI(\n        uint256 tokenId\n    ) public view virtual override(ERC721, ERC721URIStorage) returns (string memory) {\n        return ERC721URIStorage.tokenURI(tokenId);\n    }\n\n    function _beforeTokenTransfer(\n        address from,\n        address to,\n        uint256 tokenId\n    ) internal virtual override(ERC721, ERC721Enumerable) {\n        ERC721Enumerable._beforeTokenTransfer(from, to, tokenId);\n    }\n\n    function _burn(uint256 tokenId) internal virtual override(ERC721, ERC721URIStorage) {\n        ERC721URIStorage._burn(tokenId);\n    }\n\n}",
  "sourcePath": "/Users/marcin/Prywatne/dAdvrtMarket/contracts/AdvertisementMarket/Mocks/MockNFT.sol",
  "compiler": {
    "name": "solc",
    "version": "0.8.0+commit.c7dfd78e.Emscripten.clang"
  },
  "schemaVersion": "3.4.3",
  "updatedAt": "2021-11-19T16:51:54.056Z",
  "networkType": "ethereum",
  "devdoc": {
    "kind": "dev",
    "methods": {
      "approve(address,uint256)": {
        "details": "See {IERC721-approve}."
      },
      "balanceOf(address)": {
        "details": "See {IERC721-balanceOf}."
      },
      "getApproved(uint256)": {
        "details": "See {IERC721-getApproved}."
      },
      "isApprovedForAll(address,address)": {
        "details": "See {IERC721-isApprovedForAll}."
      },
      "name()": {
        "details": "See {IERC721Metadata-name}."
      },
      "ownerOf(uint256)": {
        "details": "See {IERC721-ownerOf}."
      },
      "safeTransferFrom(address,address,uint256)": {
        "details": "See {IERC721-safeTransferFrom}."
      },
      "safeTransferFrom(address,address,uint256,bytes)": {
        "details": "See {IERC721-safeTransferFrom}."
      },
      "setApprovalForAll(address,bool)": {
        "details": "See {IERC721-setApprovalForAll}."
      },
      "symbol()": {
        "details": "See {IERC721Metadata-symbol}."
      },
      "tokenByIndex(uint256)": {
        "details": "See {IERC721Enumerable-tokenByIndex}."
      },
      "tokenOfOwnerByIndex(address,uint256)": {
        "details": "See {IERC721Enumerable-tokenOfOwnerByIndex}."
      },
      "totalSupply()": {
        "details": "See {IERC721Enumerable-totalSupply}."
      },
      "transferFrom(address,address,uint256)": {
        "details": "See {IERC721-transferFrom}."
      }
    },
    "version": 1
  },
  "userdoc": {
    "kind": "user",
    "methods": {},
    "version": 1
  }
}